:10000000D8A1002049C7000099B6000099B60000A9
:1000100099B6000099B6000099B6000099B60000A4
:1000200099B6000099B6000099B6000099B6000094
:0C00300099B6000099B6000059B6000017
:10003C0053B94AB9002908BF00281CBF4FF0FF3143
:10004C004FF0FF3000F06EB9ADF1080C6DE904CE45
:10005C0000F006F8DDF804E0DDE9022304B0704797
:10006C002DE9F047089D04468C46002B40F0838018
:10007C008A42174647D9B2FA82F242B1C2F1200045
:10008C0024FA00F09140974040EA010C94404FEA6A
:10009C001748230CBCFBF8F61FFA87FE08FB16C1A9
:1000AC0043EA014306FB0EF1994209D9FB1806F10C
:1000BC00FF3080F01981994240F21681023E3B4498
:1000CC005B1AA4B2B3FBF8F008FB103344EA034408
:1000DC0000FB0EFEA64509D93C1900F1FF3380F058
:1000EC000581A64540F2028102383C4440EA0640B4
:1000FC00A4EB0E0400261DB1D4400023C5E9004337
:10010C003146BDE8F08702B9FFDEB2FA82F2002A6E
:10011C0050D1CB1B4FEA174E1FFA87F80126B3FBC1
:10012C00FEFC210C0EFB1C3341EA034108FB0CF3D3
:10013C008B4207D979180CF1FF3002D28B4200F2B6
:10014C00E9808446C91AA3B2B1FBFEF00EFB101174
:10015C0043EA014408FB00F8A04507D93C1900F11B
:10016C00FF3302D2A04500F2D9801846A4EB080454
:10017C0040EA0C40BFE78B4209D9002D00F0B1805A
:10018C000026C5E9000130463146BDE8F087B3FAD8
:10019C0083F6002E4AD18B4202D3824200F2B88001
:1001AC00841A61EB030101208C46002DA8D0C5E90F
:1001BC00004CA5E7C2F1200320FA03F6974001FAA0
:1001CC0002F04FEA174ED9403043030CB1FBFEF658
:1001DC001FFA87F80EFB161143EA014306FB08F1E0
:1001EC00994204FA02F409D9FB1806F1FF3C80F09D
:1001FC008D80994240F28A80023E3B445B1A81B268
:10020C00B3FBFEF00EFB103341EA034100FB08F395
:10021C008B4207D9791800F1FF3C73D28B4271D90C
:10022C0002383944CB1A40EA064678E7C6F1200C6E
:10023C0003FA06F422FA0CF31C4320FA0CF701FA29
:10024C0006F34FEA144E21FA0CF11F433B0CB1FBA1
:10025C00FEF91FFA84F80EFB191143EA014109FB60
:10026C0008FA8A4502FA06F200FA06F308D9611870
:10027C0009F1FF3048D28A4546D9A9F10209214437
:10028C00A1EB0A01BFB2B1FBFEF00EFB101147EA65
:10029C00014700FB08F8B84507D9E71900F1FF3111
:1002AC002ED2B8452CD90238274440EA0940A7EB96
:1002BC000807A0FB02894F45C64649461AD317D0FA
:1002CC005DB1B3EB0E0267EB010707FA0CFCF240D1
:1002DC004CEA0202F740C5E9002700263146BDE88A
:1002EC00F0872E4628460BE70646E9E61846FDE65B
:1002FC004345E5D2B8EB020E69EB04010138DFE7A8
:10030C000846D2E760468DE78146B9E7664675E751
:10031C0030464AE7ACF1020C394413E702383C444E
:10032C0024E700BF704700BF80B400AF034B1B68CD
:10033C001846BD465DF8047B704700BF00270020BF
:10034C0080B400AF084B1B6800221A71064B1B6867
:10035C001B68054A1360044B1B681B791846BD4685
:10036C005DF8047B704700BF0027002090B488B074
:10037C0000AFF860B96011461A460B46FB80134675
:10038C007B71FA8879793B8D03F108003B8D08333A
:10039C005C4203F0030304F0030458BF6342C3F14F
:1003AC000403034403FB01F39A4201DA01234AE0FC
:1003BC003B8D08335A4203F0030302F0030258BF8B
:1003CC005342DBB2C3F10403FB76BB687B610023B1
:1003DC00FB6127E03B8D03F10802FB7E1344FA69B5
:1003EC0002FB03F31A467B691344BB60BB68002213
:1003FC001A71BA6853796FF301035371BA68537960
:10040C006FF383035371BB683A8DDA80BB6803F1D9
:10041C000802398DFB7E0B441A44BB681A60FB69D9
:10042C000133FB617B79FA699A42D3DBBB687A6949
:10043C001A60FB687A691A60FB6800225A60044AE9
:10044C007B691360002318462037BD4690BC70476B
:10045C000027002080B58AB000AF01F03CF80AF00C
:10046C0079FB07F10803184601F0F8FB01237B60C8
:10047C0001237B6207F10803796A184601F006FC38
:10048C0038623B6A002B00D0FEE73A1D07F10803E7
:10049C001146184601F011FC07F108034FF40361F3
:1004AC00184601F026FC02463B6A13433B623B6A4A
:1004BC00002B00D0FEE707F1080107F11C00002318
:1004CC00074A01F025FC38623B6A002B00D0FEE79E
:1004DC0001F056FE002318462837BD4680BD00BFEC
:1004EC0029110000B0B483B000AF78603960074BBD
:1004FC00D3E90023541C43F10005044BC3E9004528
:10050C0000BF0C37BD46B0BC704700BFC81C0020F4
:10051C002DE9B04382B000AF134BD3E900234FF069
:10052C0000044FF0000515000024104B1B68184602
:10053C0009F094FA03461A464FF0000344EA020805
:10054C0045EA0309C7E90089D7E900014BF6803277
:10055C004FF00003FFF76CFD02460B46134618469E
:10056C000837BD46BDE8B083C81C00200427002016
:10057C0080B500AF09F0C2F9104809F0C1F90F4B72
:10058C004FF0FF329A600D4B02225A700B4B022235
:10059C001A700A4B0A4A5A600849002009F064FA9A
:1005AC000346084A1360074B1B68002B04D0054B0D
:1005BC001B68184609F0E0F900BF80BD0827002031
:1005CC00F104000004270020B0B584B000AFF8603F
:1005DC00C7E900230B467B81FFF7A6FE03461E4AA4
:1005EC001360FFF7ADFED7E900234FF480304FF0D6
:1005FC00000102EA000403EA010554EA050327D0CE
:10060C00154B1B681B7A002B22D0144B1B78DBB2CA
:10061C001A464FF47A7303FB02F3114A98180E4BE7
:10062C001B6803F108010C4B1B681B7A1A460BF074
:10063C003FFC0A4B1B78DBB20133DAB2074B1A7062
:10064C00064B1B78DBB2092B02D9044B00221A7023
:10065C0000BF1037BD46B0BD80200020D01C00204C
:10066C0014270020B0B586B002AF0346FB719E4B39
:10067C001B689E4AB2F900100022184607F0F0FFE2
:10068C00994B1868994BB3F900104FF002024FF0D8
:10069C00000307F099FE944B1B68002B0CD0924B77
:1006AC001B68184607F09AFF8F4B1B68184607F01B
:1006BC00E3FE8D4B00221A60FB790B3B9BB21A4672
:1006CC00920013449BB203F66513FB81884A894B55
:1006DC0014460FCB84E80F004FF48072002186483B
:1006EC000BF0F4FB3022854985480BF0E1FB20220E
:1006FC00002184480BF0EAFB824807F0BFFF814BD6
:10070C00814ADA61814B824A5A607D4B00225A80C1
:10071C007B4B00225A607A4A537B012161F303031D
:10072C005373774A137B43F080031373754B744AEE
:10073C006F49714807F0AEFF03466B4A1360002304
:10074C00BB60BB6847F2172262F31503BB60664BB4
:10075C001B68B968184608F0FFF86E4A6E4B1446D1
:10076C001D460FCD0FC495E8030084E80300694AC9
:10077C00FB89D3815C4B18684FF000024FF00003EB
:10078C00CDE9002300230022624907F05BFC4FF403
:10079C008473009302234FF40A7260495C48FFF79C
:1007AC00E5FD0346002B03D05D480BF005FCFEE78E
:1007BC00202200215B480BF089FB5A4807F0CEFC45
:1007CC00584B00225A61574B00221A60554B00229D
:1007DC001A71544B0022DA60524B03221A74524A9B
:1007EC00524B14461D460FCD0FC40FCD0FC40FCD69
:1007FC000FC495E80F0084E80F004B4B00225A8081
:10080C00494B434A1A61484B494A5A61464AD37B81
:10081C0043F00103D373444AD37B43F00203D373F5
:10082C00414AD37B43F00403D3733F4AD37B6FF32A
:10083C00C303D3733C4AD37B43F01003D3733A4ABC
:10084C00D37B6FF34513D373374AD37B43F0400309
:10085C00D373354AD37B6FF3C713D373324B002258
:10086C009A60314A137B6FF3030313732E4A137B85
:10087C0043F0800313732C4AD37E6FF30003D376BB
:10088C00294AD37E6FF34103D376274AD37E6FF385
:10089C008203D376244AD37E6FF3C303D376224AE2
:1008AC00D37E6FF30413D3761F4AD37E43F06003D9
:1008BC00D3761D4B64221A771B4AFB7993730A4B30
:1008CC0018681C4A4FF08073CDE900231A4B154A67
:1008DC00154907F04FFC03461A46044B1A8000BF1B
:1008EC001037BD46B0BD00BFD81D00201C1E002017
:1008FC008420002030180020D81C00204C18002028
:10090C0094200020201E002054F10080D8180020D4
:10091C0078200020AC20002064180020401E00200D
:10092C0088C70000FC1D0020C8200020981800205B
:10093C006820002020004300D505000080B584B05D
:10094C0002AF786039601D4807F008FC1B4B002291
:10095C001A601A4B00221A71184B4FF0FF329A6032
:10096C00164B4FF0FF325A61144B4FF0FF32DA60E6
:10097C00124B00221A74124A137B6FF30303137386
:10098C003B68DAB20E4BDA730D4A7B6813610D4B80
:10099C0018684FF000024FF00003CDE9002300234C
:1009AC00064A074907F008FE064B1B68184607F075
:1009BC0015FE00BF0837BD4680BD00BFDC1D002002
:1009CC007C180020D81D0020B0B5ADF5127D00AF0D
:1009DC003B1D18603B46196007F1080330220021CB
:1009EC0018460BF073FA07F10803FE221A703B1D30
:1009FC001B6802331B781B021AB23B1D1B680133A8
:100A0C001B781BB213431BB2A7F83A32B7F83A3231
:100A1C00DBB203F0070387F8393297F83932022B2F
:100A2C0000F06A8197F83932012B40F0658107F1AB
:100A3C00080342229A7007F108038522DA703B1DE5
:100A4C001B68DA7807F1080383F823203B1D1B6829
:100A5C001A7907F108039A773B1D1B685A7907F13D
:100A6C000803DA770023C7F84432B7F83A3203F4B4
:100A7C004063B3F5406F39D107F1080303225A7371
:100A8C003B1D1B689A7907F108039A733B1D1B6881
:100A9C00DA7907F10803DA733B1D1B681A7A07F140
:100AAC0008031A743B1D1B685A7A07F108035A7421
:100ABC003B1D1B689A7A07F108039A743B1D1B684F
:100ACC00DA7A07F10803DA743B1D1B681A7B07F10D
:100ADC0008031A753B1D1B685A7B07F108035A75EE
:100AEC00D7F844320433C7F8443223E007F1080343
:100AFC0002225A733B1D1B689A7907F108039A73FB
:100B0C003B1D1B68DA7907F10803DA73D7F8443216
:100B1C0008333A1D126813441A7807F108031A7740
:100B2C00D7F8443209333A1D126813441A7807F186
:100B3C0008035A77B7F83A3203F44043B3F5404F01
:100B4C0059D107F1080303221A71D7F844320A333A
:100B5C003A1D126813441A7807F108035A71D7F832
:100B6C0044320B333A1D126813441A7807F1080308
:100B7C009A71D7F844320C333A1D126813441A7820
:100B8C0007F10803DA71D7F844320D333A1D1268B5
:100B9C0013441A7807F108031A72D7F844320E334B
:100BAC003A1D126813441A7807F108035A72D7F8E1
:100BBC0044320F333A1D126813441A7807F10803B4
:100BCC009A72D7F8443210333A1D126813441A78CB
:100BDC0007F10803DA72D7F8443211333A1D126860
:100BEC0013441A7807F108031A73D7F84432063302
:100BFC00C7F8443217E007F1080302221A71D7F83C
:100C0C0044320A333A1D126813441A7807F1080368
:100C1C005A71D7F844320B333A1D126813441A78C0
:100C2C0007F108039A713B1D1B681A78D7F84432F8
:100C3C00DBB2D31ADBB20D3BDAB207F1080383F84F
:100C4C002F2007F1080393F82F302C33DAB207F179
:100C5C0008035A7007F1380207F1080314461D46C1
:100C6C000FCD0FC40FCD0FC495E80F0084E80F0013
:100C7C00D7F844320C333A1D1268D11807F1080327
:100C8C0093F82F301A4607F13803303318460BF01F
:100C9C000FF9002387F843320123C7F83C320FE0E9
:100CAC0007F13802D7F83C3213441A7897F84332DC
:100CBC00534087F84332D7F83C320133C7F83C3203
:100CCC0007F108035B780333D7F83C229A42E7DD3F
:100CDC0007F108035B78043307F1380297F84312E5
:100CEC00D15407F108035B7805331A4607F1380332
:100CFC001146184600F0E2FA00BF07F51277BD4620
:100D0C00B0BD0000B0B5CCB000AF3B1D18603B4689
:100D1C0019600121072008F007F83B1D1B681B78A0
:100D2C001B021AB23B1D1B6801331B781BB2134309
:100D3C001BB2A7F82A31B7F82A3142F209229342A2
:100D4C0022D042F20922934200F35A8142F203224A
:100D5C00934204D042F2052293425ED050E13B1DF7
:100D6C001B689A79AB4B1A703B1D1B68DA79A94B3F
:100D7C005A703B1D1B681A7AA74B1A70A64B1B782E
:100D8C001846FFF76FFC3BE13B1D1B6802331B78D9
:100D9C00E22B0DD0E22B00F332814C2B02D0532BE3
:100DAC002FD02CE13B1D1B68DA789C4B1A7033E07A
:100DBC003B1D1B68DA789A4B1A703B1D1B681A791D
:100DCC00974B5A703B1D1B685A79954B9A703B1D7B
:100DDC001B689A79924BDA703B1D1B68DA79904B41
:100DEC001A713B1D1B681A7A8D4B5A713B1D1B687F
:100DFC005A7A8B4B9A713B1D1B689A7A884BDA7125
:100E0C000AE03B1D1B68DA78864B1A703B1D1B6889
:100E1C001A79844B5A7000BFF1E03B1D1B680233FA
:100E2C0007F586741D4628686968AA68EB680FC4C4
:100E3C0028696969AA6907C497F8193143F0410315
:100E4C00DAB207F10C031A7097F81731002B02D0A5
:100E5C006FF03F0201E06FF07F0297F80C31002B2E
:100E6C0001D00C2300E0082313435BB2DAB207F184
:100E7C000C035A70694B1A7807F10C039A7097F8A7
:100E8C00152107F10C03DA7097F8162107F10C0302
:100E9C001A710023C7F82C3197F80C31032B2DD184
:100EAC0097F8142107F10C035A7197F8132107F1E5
:100EBC000C039A7197F8122107F10C03DA7197F869
:100ECC00112107F10C031A7297F8102107F10C038A
:100EDC005A7297F80F2107F10C039A7297F80E21AA
:100EEC0007F10C03DA7297F80D2107F10C031A7352
:100EFC00D7F82C310633C7F82C3109E097F80D21BF
:100F0C0007F10C035A7197F80E2107F10C039A7133
:100F1C0097F81731032B45D1D7F82C310733404ABA
:100F2C00117807F10C02D154D7F82C3108333C4A14
:100F3C00517807F10C02D154D7F82C310933384AC7
:100F4C00917807F10C02D154D7F82C310A33344A7A
:100F5C00D17807F10C02D154D7F82C310B33304A2D
:100F6C00117907F10C02D154D7F82C310C332C4ADF
:100F7C00517907F10C02D154D7F82C310D33284A92
:100F8C00917907F10C02D154D7F82C310E33244A45
:100F9C00D17907F10C02D154D7F82C310633C7F8AC
:100FAC002C310FE0D7F82C3107331E4A117807F19A
:100FBC000C02D154D7F82C3108331A4A517807F166
:100FCC000C02D154D7F82C31093307F10C02D0188C
:100FDC003B1D1B681E3397F8272119460AF068FF42
:100FEC0097F827311A46D7F82C31134403F109022C
:100FFC0007F10C0311461846FFF7A0FC00E000BFF8
:10100C000021072007F090FE00BF07F59877BD463A
:10101C00B0BD00BF20570020E018002008210020A0
:10102C00245700202C57002080B582B000AF034617
:10103C00FB71FFF76DFA0246324B1B68D31A092B72
:10104C0002D9314B00221A60FFF762FA03462D4A8F
:10105C0013602D4B1B68032B50D801A252F823F0C0
:10106C007D1000008F100000AF100000E510000094
:10107C00FB79FE2B3FD1244B1B680133224A1360B2
:10108C0039E0FB790233214A1360214B00221A60AC
:10109C00204AFB7913701C4B1B6801331A4A1360EE
:1010AC002CE01B4B1B685A1C19490A601A49FA7927
:1010BC00CA54184B1A78FB795340DAB2154B1A7094
:1010CC00134B1A68114B1B689A4216DB0E4B1B68AC
:1010DC0001330D4A136010E00E4B1B78FA799A42DB
:1010EC0005D10A4B1B6819460B48FFF70BFE064B44
:1010FC0000221A6002E000BF00E000BF00BF08370A
:10110C00BD4680BD1C210020102100201421002090
:10111C000C21002018210020F455002080B584B04B
:10112C0000AF78602C49072007F0B0FD01210720A3
:10113C0007F0FAFDFFF71CFA00F07CF8274B1A7841
:10114C00274B1B789A422BD00121072007F0ECFD8E
:10115C00234B1B781A464FF47A7303FB02F3214A94
:10116C001A441F4B1B7818461E494FF47A7303FB25
:10117C0000F30B441B7819461046FFF725FC184B5F
:10118C001B780133DAB2164B1A70154B1B78092BEE
:10119C0002D9134B00221A700021072007F0C4FD5E
:1011AC00114B1B68002BC9D00023FB6009E00F4AD0
:1011BC00FB6813441B781846FFF736FFFB680133B6
:1011CC00FB60FA68084B1B689A42F0D3064B00226E
:1011DC001A6000F061F8B1E700600020D01C00201C
:1011EC00D11C00201427002030590020305700203B
:1011FC0080B584B000AFF860B9607A603B60BB69C1
:10120C00002B03D1074A7B68136007E0064B186874
:10121C00064B1A680023064908F03EFE00BF103743
:10122C00BD4680BD3059002034590020E418002000
:10123C003057002080B58AB000AF3B1D184608F02F
:10124C00F1FC4FF4E133FB6101233B710E4BBB60AE
:10125C0001233B7607E03B1D1946002009F040F8BE
:10126C0003460A4A1360094B1B68002BF3D0074B4B
:10127C001868074B1A680023064908F00DFE00BFDA
:10128C002837BD4680BD00BFFD1100003459002039
:10129C00E41800203057002080B500AF044B1868CC
:1012AC00044B1A680023044908F0F6FD00BF80BD0A
:1012BC0034590020E41800203057002080B584B049
:1012CC0000AF786039600023FB60064B186807F1AB
:1012DC000C033A68796808F053FF00BF1037BD461D
:1012EC0080BD00BF3459002080B584B000AFF860D9
:1012FC000B467A60FB72FB7A7A681946F86800F044
:10130C000AF8FB7A7A681946F86800F011F800BF01
:10131C001037BD4680BD80B485B000AFF8600B4679
:10132C007A60FB7200BF1437BD465DF8047B7047D2
:10133C0080B586B000AFF8600B467A60FB72FB7A22
:10134C0003F00103002B20D00021002007F0ECFC5F
:10135C0000211D2007F0E8FCF86807F00FFB03469E
:10136C00C3F3C073DBB2FB75FB7D012B08D12F21BE
:10137C00002007F0CBFC32211D2007F0C7FC19E040
:10138C000121002007F0D0FC14E0FB7A03F00203EB
:10139C00002B0FD00021002007F0C6FC00211D20DF
:1013AC0007F0C2FC0021002007F0B0FC00211D203A
:1013BC0007F0ACFC00BF1837BD4680BD80B584B0CB
:1013CC0000AF0346FB710021142007F0ADFC002395
:1013DC00FB7319E000210A2007F0A6FCFA79FB7BCD
:1013EC00C3F1070342FA03F303F001031946092082
:1013FC0007F09AFC01210A2007F096FC08200AF05D
:10140C0029FCFB7B0133FB73FB7B072BE2D900210F
:10141C000A2007F089FC0121142007F085FC4FF409
:10142C002F700AF017FC00BF1037BD4680BD0000BE
:10143C0080B500AF0A49142007F028FC00211420C5
:10144C0007F072FC01200AF005FC0121142007F0C2
:10145C006BFC4FF40C700AF0FDFB00BF80BD00BFAD
:10146C000164002080B582B000AFFFF7E1FF1349A3
:10147C00142007F00BFC12490A2007F007FC104956
:10148C00092007F003FC0F49082007F0FFFBB923E4
:10149C00FB71FB791846FFF791FF142007F0CCFB8A
:1014AC000A2007F0C9FB092007F0C6FB082007F04B
:1014BC00C3FB00BF0837BD4680BD00BF01640020E0
:1014CC00006400200220002080B400AF00BFBD46A5
:1014DC005DF8047B704780B500AF07F0FFFD09F0A5
:1014EC0039FBFFF7BFFFFFF7EFFF00BF80BD80B4F4
:1014FC0083B000AF78607B6818460C37BD465DF84A
:10150C00047B704780B483B000AF78607B6818466A
:10151C000C37BD465DF8047B704780B483B000AFD8
:10152C002022EFF3118382F311887B607B681846CD
:10153C000C37BD465DF8047B704780B483B000AFB8
:10154C0040F2000CEFF311838CF311887B607B6805
:10155C0018460C37BD465DF8047B704780B483B0E9
:10156C0000AF78607B6883F3118800BF0C37BD46F1
:10157C005DF8047B704780B483B000AF78607B6803
:10158C0018460C37BD465DF8047B704780B483B0B9
:10159C0000AF78607B6818460C37BD465DF8047B5D
:1015AC00704780B483B000AF78607B6818460C3706
:1015BC00BD465DF8047B704780B483B000AF7860A3
:1015CC007B6818460C37BD465DF8047B704780B5C8
:1015DC0000AF00F027FE00BF80BD000080B500AF5B
:1015EC0001F000FC01F0E2FF00F016F801F0FCF94C
:1015FC0004F0D6FE02F052FC03F02AFC03F096FE37
:10160C0002F0ECFF01F0FEF9024B01221A7000BF50
:10161C0080BD00BF9421002080B586B000AF134B75
:10162C0093F82830002B1CD1104B012283F8282072
:10163C000F4B7B610F4A0E4BD31A3B6102F0E6FB5A
:10164C003B1D184602F016FC7B69BB603B69FB60D6
:10165C003B1D1946084802F0E3FB0346074A13609A
:10166C0000E000BF1837BD4680BD00BF84190020C4
:10167C00D8610020D8A10020105E0020902100200D
:10168C0080B588B000AFF860B9607A603B603B68A9
:10169C00002B06D100237A68B968F86802F078FF4D
:1016AC0014E007F11003184602F05FFF3B689B68DB
:1016BC00BB613B681B783B743B685B687B6107F1E3
:1016CC0010037A68B968F86802F062FFF868FFF7EF
:1016DC0068FFF861FB6918462037BD4680BD80B5B0
:1016EC0082B000AF7860786802F06CFF00BF0837FA
:1016FC00BD4680BD80B582B000AF7860786800F0E0
:10170C002DFD00BF0837BD4680BD80B400AF0A2355
:10171C001846BD465DF8047B704780B582B000AFBB
:10172C007860786802F0F0FE034618460837BD462C
:10173C0080BD80B582B000AF7860786802F008FF99
:10174C00034618460837BD4680BD80B483B000AF51
:10175C0078607B6800229A607B6800221A707B6834
:10176C0000225A6000BF0C37BD465DF8047B704701
:10177C0080B582B000AF786039603968786802F063
:10178C00B5FE00BF0837BD4680BD80B582B000AF46
:10179C007860786802F08CFE00BF0837BD4680BDCB
:1017AC0080B582B000AF7860786802F092FE00BF1E
:1017BC000837BD4680BD80B58CB000AFF860B9600D
:1017CC007A603B603B68002B07D100237A68B968CC
:1017DC00F86801F039F9F86215E007F114031846BE
:1017EC0001F0FEFE3B681B68BB613B685B687B627B
:1017FC003B681B7A3B7707F114037A68B968F86881
:10180C0001F022F9F862FB6A18463037BD4680BDFC
:10181C0080B582B000AF7860786801F075F900BFD0
:10182C000837BD4680BD80B582B000AFFFF775FEAE
:10183C0078607B6818460837BD4680BD80B582B09D
:10184C0000AF78607B68184601F085FB00BF083755
:10185C00BD4680BD80B582B000AFFFF75EFE7860FC
:10186C007868FFF77BFE7B68002B0CBF01230023FD
:10187C00DBB218460837BD4680BD80B582B000AFDC
:10188C0078607B68184601F07DFC00BF0837BD46C8
:10189C0080BD80B586B000AFF860B9607A60FFF7A4
:1018AC003CFE78617A68B968F86801F059FC78698F
:1018BC00FFF754FE00BF1837BD4680BD80B483B01F
:1018CC0000AF78607B6800221A607B684FF0FF32B3
:1018DC005A607B6801221A7200BF0C37BD465DF856
:1018EC00047B704780B582B000AF78607868FFF7F2
:1018FC0035FE00BF0837BD4680BD80B586B000AF51
:10190C007860396007F10C03184603F0B0F9012335
:10191C003B733B6807F10C021946786803F07AF9BF
:10192C007868FFF749FE034618461837BD4680BD58
:10193C0080B582B000AF7860786803F083F900BF9F
:10194C000837BD4680BD80B584B000AF7860396083
:10195C003968786803F01AF80346FB73FB7B83F055
:10196C000103DBB2002B02D04FF0FF3300E0002369
:10197C0018461037BD4680BD80B582B000AF786088
:10198C00786803F0EBF800BF0837BD4680BD80B423
:10199C0083B000AF78607B6800221A607B680022FD
:1019AC005A607B680022DA607B684FF0FF329A60E5
:1019BC0000BF0C37BD465DF8047B704780B58AB01C
:1019CC0000AFF860B9607A607B68002B06D100220A
:1019DC00B968F86803F026FB786224E07B689B68A2
:1019EC000622934206D37B689B68B3F1FF3F01D07C
:1019FC00002319E007F11003184603F0EBFB7B689A
:101A0C001B687B617B685B68BB617B68DB683B62E6
:101A1C007B689B68FB6107F110031A46B968F8688C
:101A2C0003F000FB78627B6A18462837BD4680BD00
:101A3C0080B582B000AF7860786803F005FC00BF19
:101A4C000837BD4680BD80B582B000AF03F042FAC6
:101A5C0078607B6818460837BD4680BD80B582B07B
:101A6C0000AF03F0D3FA78607B6818460837BD46A0
:101A7C0080BD80B582B000AF786039603968786815
:101A8C0003F090FB00BF0837BD4680BD80B582B027
:101A9C0000AF7860786803F031FA00BF0837BD46B4
:101AAC0080BD80B500AF0AF0D1F80346002B14BFFF
:101ABC0001230023DBB2184680BD80B500AF0AF0CD
:101ACC00C1F80346002B14BF01230023DBB21846D8
:101ADC0080BD80B400AF30BF00BF00BFBD465DF815
:101AEC00047B704780B400AF044B01221A60034B97
:101AFC001B6800BFBD465DF8047B70472C20094075
:101B0C0080B586B000AF0123FB750AF09BF809F095
:101B1C001FFA07F033F938613B6903F00C030C2B07
:101B2C0006D1AFF30080FFF7D4FFAFF3008064E081
:101B3C003B6903F00403002B35D102F01BFAF8606B
:101B4C000A22FB6802FB03F3BB600121012007F0B2
:101B5C001BF90246BB68934225D90A23F022B2FB3B
:101B6C00F3F3FA68D31AFB602748FFF71AFD034614
:101B7C00F968184602F0BAFC2348FFF712FD034639
:101B8C00184602F095FCAFF30080012007F0ACFB87
:101B9C00AFF300801C48FFF704FD0346184602F023
:101BAC0098FC0023FB75FB7D002B26D0AFF3008047
:101BBC003B6903F00803002B1BD1144B1B68083343
:101BCC001B681348984778607B68042BF5D03B69F9
:101BDC0003F01003002B02D17B68002B03D10120F2
:101BEC0009F0BCF902E0002009F0B8F9FFF77AFF20
:101BFC0001E0FFF76EFFAFF300800AF027F800BF9B
:101C0C001837BD4680BD00BFFC1A0020D80100105B
:101C1C000040034080B500AF03F008FC0346044AC3
:101C2C00136003F057F90346024A136000BF80BDEE
:101C3C005C610020FC5C002080B500AF054B1B688C
:101C4C00184603F05BF9044B1B68184603F01AFCAA
:101C5C0000BF80BDFC5C00205C610020B0B483B090
:101C6C0000AF78604FF40072074B9A607B68064AAD
:101C7C001C4615460FCD0FC42B6823600023184655
:101C8C000C37BD46B0BC70477019002080B483B0CF
:101C9C0000AF786039603B68002B04D03B68012BA7
:101CAC0001D0162303E07B683A681A6100231846BA
:101CBC000C37BD465DF8047B704780B485B000AF2F
:101CCC00786039603B681B68FB6006231A46FB682A
:101CDC00934202DAFB68002B01DC162303E07B68DD
:101CEC00FA681A60002318461437BD465DF8047B69
:101CFC00704780B483B000AF786039607B683A6815
:101D0C009A60002318460C37BD465DF8047B70477B
:101D1C0080B596B000AFF860B9607A603B60002384
:101D2C007B6507F11403184604F09EFA07F12003B3
:101D3C00184604F08DF9FB6800221A6007F11403B1
:101D4C0000225021002004F0C9FA78657B6D002B2D
:101D5C0001D10C237CE04FF400723F4B9A60BB68BE
:101D6C00002B01D0BB6800E03B4B3B653B6D1B6817
:101D7C00FB623B6D5B683B633B6D9A683B6D5B68DC
:101D8C00002B02D13B6DDB6800E0002313447B6326
:101D9C007B687B627B6DBB623B68FB634FF0FF3300
:101DAC00FB623B6D1B69002B14BF01230023DBB2CC
:101DBC001A467B6D1A637B6D7A685A637B6D0022C1
:101DCC00DA627B6D00229A637B6D0022DA633B6DD5
:101DDC001A687B6D9A607B6D00225A647B6D483368
:101DEC000021184602F021FD07F14403184602F0C9
:101DFC003EFF012387F844307B6D103307F144021A
:101E0C000021184602F006FF07F1140207F1200327
:101E1C001946124804F05CF902467B6DDA607B6D62
:101E2C00DB68002B04D1786D00F0CFF80C230FE0A9
:101E3C007B6DDB687A685A63FB687A6D1A607B6D20
:101E4C00DA683B6D1B681946104603F07FFE0023D1
:101E5C0018465837BD4680BD701900200D20000073
:101E6C0080B586B000AF786000F040F878617B698F
:101E7C007A681A6407F10C031946012000F045F842
:101E8C0005E07B695B6C0121184600F085F87B69E5
:101E9C005B6C002BF5D1786900F0CEF87B691B6B7D
:101EAC00002B09D17B6910331846FFF785FB0346DD
:101EBC00184602F053FE0CE003F0B8FA38610A4BF6
:101ECC001A687B691A60084A7B691360386903F0E9
:101EDC00D9FA7B69DB684FF0FF31184603F036FE08
:101EEC0000BF1837BD4680BD6021002080B500AF13
:101EFC0003F018FB0346184603F004FE034618468D
:101F0C00FFF7F5FA0346184680BD80B584B000AFE4
:101F1C0078603960FFF7EAFFF8607B68002B04D02B
:101F2C007B68012B01D0162312E0FB689A6B3B688F
:101F3C001A60FB687A689A637B68002B07D1FB6890
:101F4C00DB6B002B03D04FF0FF30FFF789FF002332
:101F5C0018461037BD4680BD80B582B000AF03F087
:101F6C0065FA78600B4B1B683B603B68002B03D019
:101F7C003B681B68074A1360786803F083FA3B6878
:101F8C00002B02D0386800F020F800BF0837BD469F
:101F9C0080BD00BF6021002080B584B000AF7860A8
:101FAC0039607B681B68FB607B681A69FB685A6444
:101FBC003B68002B05D07B685B687A68926810469A
:101FCC00984700BF1037BD4680BD80B582B000AFCA
:101FDC0078607B681033184602F034FE7B68DB684F
:101FEC00002B04D07B680C33184604F0AEF850225A
:101FFC007968002004F0BCF900BF0837BD4680BDED
:10200C0080B586B000AF786039603868FFF76FFA3A
:10201C0078617B69DB68184603F080FD38617B6969
:10202C005B6B38699847F860F868FFF719FF00BFD9
:10203C001837BD4680BD000080B588B000AF786011
:10204C007B68BB6103F0F2F97861BB6948331846D1
:10205C00FFF791FA0346184602F03CFB0346002BAF
:10206C0003D0786903F00EFA4BE0786903F00AFAB2
:10207C002548FFF7A1FA03464FF0FF31184602F04E
:10208C0085FCBB6948331846FFF775FA03461846BA
:10209C0002F04CFBF86124E0FB693B613B691B6976
:1020AC00FB603B699B68BB60F86902F075FBF861EB
:1020BC00386902F0A6FBF86802F0A3FBBB681B684A
:1020CC00002B09D03B69DB68002B05D0BB681B6873
:1020DC003A69D268104698471C22F968002004F02F
:1020EC0047F9BB6948331846FFF745FA0246FB69C6
:1020FC009342D1D10448FFF75FFA0346184602F029
:10210C002DFD2037BD4680BD6421002080B400AF7A
:10211C00014B1B78FCE700BF9421002080B400AF7A
:10212C00034B1B7D1846BD465DF8047B704700BF12
:10213C008419002080B485B000AF0346FB71064BB8
:10214C001B7DFB73044AFB791375FB7B1846143714
:10215C00BD465DF8047B70478419002080B483B0C1
:10216C0000AF78607B68054A92E8030083E80300BF
:10217C0000BF0C37BD465DF8047B70478419002006
:10218C0080B500AF024BDB69984700BF80BD00BF34
:10219C008419002080B582B000AF7860034B1B6AB5
:1021AC007868984700BF0837BD4680BD8419002069
:1021BC0080B582B000AF786002F08CFE03F036F987
:1021CC000320FFF7B7FF00BF0837BD4680BD80B5C1
:1021DC0082B000AF78600320FFF7ACFF786804F0A2
:1021EC0017F900BF0837BD4680BD000080B500AFB1
:1021FC000A4B1B78DBB283F00103DBB2002B01D05E
:10220C00FFF784FF064804F0DBF800F05FFE02F0F5
:10221C0049FE03F0C3F800BF80BD00BF942100202D
:10222C00BD21000080B500AF09F0A2FB00BF80BD4E
:10223C0080B58AB002AF00F094F93B1D184600F04F
:10224C00D3FA0A23FB6000233B740123012B02D138
:10225C0002233B7101E000233B713B1D00220092E5
:10226C00044A0021044800F0D7FA00BF2037BD46CD
:10227C0080BD00BF95420000885D002080B500AF96
:10228C00024800F0D9F80346184680BD885D00204E
:10229C0080B582B000AF78607968034800F024F90B
:1022AC0000BF0837BD4680BD885D002080B582B078
:1022BC0000AF0346FB71FB791946044800F04FFA56
:1022CC00034618460837BD4680BD00BF885D002018
:1022DC0080B483B000AF78607B6803F00103002BFF
:1022EC0002D00D4B01221A607B6803F00203002B15
:1022FC0003D0094B4FF480721A607B6803F004031F
:10230C00002B03D0044B4FF480321A6000BF0C3703
:10231C00BD465DF8047B70470420094080B485B04D
:10232C0000AF78600023FB607B6803F00103002B97
:10233C0002D00F4B1B68FB607B6803F00203002B81
:10234C0002D00C4B1B68FB607B6803F00403002B72
:10235C0002D0094B1B68FB60FB68002B14BF0123E8
:10236C000023DBB218461437BD465DF8047B70477A
:10237C0080002443A0002443C000244380B483B0D5
:10238C0000AF78607B6803F00103002B02D00C4B8C
:10239C0001221A607B6803F00203002B02D0094B68
:1023AC0001221A607B6803F00403002B02D0064B59
:1023BC0001221A6000BF0C37BD465DF8047B7047E4
:1023CC0080022443A0022443C002244380B483B07F
:1023DC0000AF786039607B6803F00103002B02D0FA
:1023EC000C4A3B6813607B6803F00203002B02D09D
:1023FC00094A3B6813607B6803F00403002B02D08E
:10240C00064A3B68136000BF0C37BD465DF8047B81
:10241C00704700BF182009401C20094020200940AB
:10242C0080B400AF034B1B681846BD465DF8047BB7
:10243C00704700BF3020094080B586B000AF78608F
:10244C007B68D3E910234FF0000047F69061FDF74D
:10245C00EFFD02460B46C7E90223D7E90223012B05
:10246C0008BF002A03D34FF0FF337B6101E0BB6848
:10247C007B617B6918461837BD4680BD80B586B038
:10248C0000AFF860B9601346FB71FFF716FB03460B
:10249C00FB75FFF7C5FF3861BA683B69D31AB3F116
:1024AC00004F03D93B690633BB600DE03A69BB684A
:1024BC00D31A0633002B07DB3B690633BA689A4202
:1024CC0002D23B690633BB60B9680120FFF77EFF7F
:1024DC00FB7D83F00103DBB2002B01D0FFF7E1FAA7
:1024EC0000BF1837BD4680BD2DE9F04389B000AF61
:1024FC00786039600023FB777B68D3E912453B6831
:10250C0018464FF000017B68D3E9102302FB01FC55
:10251C0000FB03F66644A0FB0223F1180B4614EBF8
:10252C00020845EB0309C7E90489D7E904014FF018
:10253C0000024FF00003020C42EA01420B0C13465E
:10254C00FB60FB7F1A46F9687868FFF797FF79689C
:10255C00D7E90423C1E9142300BF2437BD46BDE8E5
:10256C00F08380B400AF00BFBD465DF8047B7047BC
:10257C0080B584B000AF7860FEF7CFFFB8607B68A1
:10258C005B69B3F5802F02D20423FB6003E07B6808
:10259C005B691B0CFB60FFF743FF0246FB681344AF
:1025AC00FB600120FFF794FEF9680120FFF70EFF96
:1025BC00074B1B681B682321002098470120FFF75D
:1025CC00DDFEB868FEF7CAFF00BF1037BD4680BD00
:1025DC008401001080B483B000AF786039607B68F0
:1025EC003A685A6100BF0C37BD465DF8047B7047F2
:1025FC0080B582B000AF7860054B1B6830331B6828
:10260C00984702460B46104619460837BD4680BD12
:10261C008C01001080B584B000AF78607B68FB60E3
:10262C000120FFF755FEFB68DB69FA6892691046DA
:10263C00984700BF1037BD4680BD80B584B000AF51
:10264C0078607B68FB600023002B0BD00220FFF727
:10265C0065FE0346002B05D00220FFF739FE002350
:10266C00012098470023002B0BD00420FFF756FEC7
:10267C000346002B05D00420FFF72AFE002302207E
:10268C0098470120FFF74AFE0346002B08D0012093
:10269C00FFF71EFEFB68DB69FA68926910469847E3
:1026AC0000BF1037BD4680BD2DE9B04F88B000AFDC
:1026BC0078600023FB777B68BB610120FFF708FE85
:1026CC00BB69D3E91601BB69D3E9102310EB020AED
:1026DC0041EB030BC7E904ABD7E904014FF000024F
:1026EC004FF00003020C42EA01420B0C1346FB6054
:1026FC00D7E904234FF0FF304FF6FF7102EA0008D0
:10270C0003EA0109BB69D3E914234FF0FF304FF6FC
:10271C00FF7102EA000403EA0105A94508BFA045C0
:10272C0001D20123FB77FB7F1A46F968B869FFF7E2
:10273C00A5FEBB69D3E91623B969C1E91423B969AC
:10274C00D7E90423C1E91623BB69DB69BA6992692D
:10275C001046984700BF2037BD46BDE8B08F80B506
:10276C0086B000AF78600B46FB707868FFF740FFCF
:10277C00C7E904017B68D3E91023D7E90401FDF70D
:10278C0057FC02460B46C7E90223FB78002B11D0FD
:10279C007B68D3E91023B96803FB01F0F96802FBED
:1027AC0001F10144B868A0FB022319440B46796877
:1027BC00C1E91223BB6818461837BD4680BD80B5E9
:1027CC0084B000AF7860FEF7A8FEF8607B685B69A8
:1027DC0019467868FFF7FEFEF868FEF7BFFE002387
:1027EC0018461037BD4680BD80B483B000AF78600A
:1027FC007B681A460023136053609360D3601361A7
:10280C00536193617B684FF47A729A6000BF0C3706
:10281C00BD465DF8047B704780B58EB002AFF860A2
:10282C00B9607A603B60FEF778FEB862674B9B68D4
:10283C00002B04D0B86AFEF791FE0023C1E0634A76
:10284C00FB689360B86AFEF789FE3B68002B01D1E8
:10285C005F4B3B60FB68BA68DA60FB687A68DA61E8
:10286C003B685A68FB689A61FB684FF480325A6285
:10287C00FB6800221A62F9684FF000024FF0000367
:10288C00C1E912233B681B7B012B0CD13B689A6876
:10289C00FB685A613B689B681A464FF00003F96865
:1028AC00C1E9102322E03B689B681A464FF00003F5
:1028BC004FF000004FF0000111000020454A4FF08E
:1028CC000003FDF7B5FB02460B46F968C1E910237E
:1028DC00FB68D3E91023FB685A61FB68D3E910232A
:1028EC00012B08BF002A01D300236AE03B681B7848
:1028FC00022B08D1FB685B691A464FF00003F9689C
:10290C00C1E9142306E0F9684FF000024FF0000310
:10291C00C1E91423FB685B691A464FF00003F968A0
:10292C00C1E9162307F11003184600F059FEFB68A5
:10293C007B613B681B78002B0CD1FB6803F12800F2
:10294C0007F11003244A0092244A142100F0B4F831
:10295C00F8621EE00023002B0FD10023002B0CD1BA
:10296C00FB6803F1280007F110031B4A00921C4A74
:10297C00142100F0A1F8F8620BE0FB6803F12800C9
:10298C0007F11003144A0092164A142100F094F82F
:10299C00F862F868FFF713FFFB681B7C002B02D171
:1029AC00F868FFF7E5FDFB6A002B06D0FB681946BB
:1029BC00064801F009FFFB6803E0044B00229A6013
:1029CC00002318463037BD4680BD00BFB01900202B
:1029DC00C0CE000040420F0084210020B52600002C
:1029EC00212600004726000080B400AF034B044AA8
:1029FC001A6000BFBD465DF8047B70473C5E00204A
:102A0C00885D002080B500AF0E4B93F83830002B5A
:102A1C0015D10C4B012283F83820FEF77EFD094BB3
:102A2C005B6923F00703074AD2691344083B1A4633
:102A3C00044B1A61034B4FF0FF321A6000E000BFE9
:102A4C0080BD00BFBC19002080B588B002AFF86013
:102A5C00B9607A603B60154B5A6BBB689B001344A2
:102A6C001B68134A934201D000231BE0114B0093C7
:102A7C003B687A68B968F86800F01EF878617B6981
:102A8C00002B01D100230DE0084B5A6BBB689B0057
:102A9C0013441B68064A934201D1002302E0FB68F1
:102AAC003B613B6918461837BD4680BDBC190020F8
:102ABC0099B600008421002080B588B002AFF86080
:102ACC00B9607A603B6000237B613B68002B01D1CD
:102ADC000C4B3B603B6A00933B687A68B968F868BA
:102AEC0000F01EF878617B69002B05D07969F868D5
:102AFC0000F028F90023FB60FB6818461837BD4628
:102B0C0080BD00BFE0CE000080B582B000AF786021
:102B1C000021786800F016F900BF0837BD4680BD6B
:102B2C0080B588B002AFF860B9607A603B6036223D
:102B3C00BB68934209DB00230093BB682D4A00213C
:102B4C00386A03F0A7FB01234FE0BB681AB2FB689D
:102B5C00DA81294B5A6BBB689B0013441B68274ACC
:102B6C00934209D000230093BB68254A0021386AA0
:102B7C0003F090FB012338E0BB68184600F0ACF979
:102B8C00FB687A685A603B685A68FB681A603B6855
:102B9C001B69B3F1FF3F03D1FB68FF221A7304E0FA
:102BAC003B681B69DAB2FB681A73FB6800229A60F7
:102BBC003B681B7A002B02D0FB6801229A603B68B1
:102BCC001B7D002B05D0FB689B6843F00202FB6861
:102BDC009A60396AF86800F015F878617B69002B07
:102BEC0002D07B69023300E0002318461837BD463B
:102BFC0080BD00BF58CF0000BC19002099B6000062
:102C0C00E0CF000080B58AB002AF786039607B6895
:102C1C00B3F90E303B617B689B6803F00203002B19
:102C2C0005D07B681B7B1A4620239A4213D27B6803
:102C3C00B3F90E301A467B685B681946104600F0F3
:102C4C00FBF97B68B3F90E309BB25B429BB21AB2B4
:102C5C007B68DA8157E00023002B47D00023FB610F
:102C6C00344B5B6ABB610023FB75BB6908331B6883
:102C7C00002B02D10123FB750AE0BB690C33BB614D
:102C8C00FB690133FB6100231A46FB699342ECDBC1
:102C9C00FB7D002B20D0BB69274A1A60FB69C3F16E
:102CAC00030213465B0013449B0003F56F43FC3394
:102CBC00BA6904321360BB6908337A681A60BB695D
:102CCC00BB60BB680133BB607B68B3F90E30B9687D
:102CDC00184600F0B1F916E0002300930023174AC0
:102CEC000021386803F0D6FA01231FE0114B5B6A10
:102CFC00FB603B699B00FA6813447A681A601049C0
:102D0C00386900F099F97B681B7B1946386900F02B
:102D1C0001FA7B689B6803F00103002B02D0386931
:102D2C0000F019F97B6800229A60002318462037BE
:102D3C00BD4680BDBC190020014BDFF86CD00000F3
:102D4C007DB5000080B586B000AF786039603B6817
:102D5C00012B3FD07B68B3F90E30002B05DA7B6872
:102D6C00B3F90E305B427B6103E07B68B3F90E3044
:102D7C007B61786900F0B0F8184B1946786900F05F
:102D8C005BF90023002B1BD000233B61144B5B6AC7
:102D9C00FB60FB6808331A687B689A4204D1FB68B5
:102DAC00083300221A6016E0FB680C33FB603B69A9
:102DBC0001333B6100231A463B699342E9DB0AE08D
:102DCC00074B5B6ABB607B699B00BA6813440022AB
:102DDC001A6000E000BF1837BD4680BD99B60000F0
:102DEC00BC19002080B584B000AFFEF796FB324BC7
:102DFC00324A5A61304B324ADA612F4B1B6A2E4AE7
:102E0C0053632D4B1A6A4FF0E023C3F8082D4FF093
:102E1C00E023D3F8083D2B4A934222D0264B1B6A61
:102E2C00BB60254B5B6B7B600023FB6015E0FB6894
:102E3C000E2B09DCFB689B00BA6813442149FA6825
:102E4C0051F822201A6005E0FB689B007A68134455
:102E5C001D4A1A60FB680133FB603622FB68934203
:102E6C00E5DB4FF0E023D3F80C3D23F47F42002345
:102E7C001B0213444FF0E02203F1BF6303F5003350
:102E8C00C2F80C3D20224FF0E023D2B283F8222D61
:102E9C004FF0E0234FF40072C3F8142D4FF0E023F1
:102EAC00D3F8343F4FF0E02223F04043C2F8343FD4
:102EBC0000BF1037BD4680BDBC190020D8A1002032
:102ECC00000600000000000099B6000080B500AFBD
:102EDC00FEF733FB00BF80BD80B487B000AF7860D5
:102EEC007B680F2B1CD97B68103B5B093B617B68B3
:102EFC00103B03F01F03012202FA03F3FB604FF0B7
:102F0C00E0223B69403352F82330FA6813407B616E
:102F1C004FF0E0213B696033FA6841F8232013E05D
:102F2C007B680F2B0ED14FF0E0231B6903F00203DB
:102F3C007B614FF0E0231B694FF0E02223F002038A
:102F4C00136101E000237B617B6918461C37BD4689
:102F5C005DF8047B704780B487B000AF78607B6805
:102F6C000F2B1CD97B68103B5B093B617B68103BCA
:102F7C0003F01F03012202FA03F3FB604FF0E0227F
:102F8C003B69403352F82330FA6813407B614FF0B1
:102F9C00E0213B694033FA6841F8232013E07B6859
:102FAC000F2B0ED14FF0E0231B6903F002037B6162
:102FBC004FF0E0231B694FF0E02243F00203136152
:102FCC0001E000237B617B6918461C37BD465DF828
:102FDC00047B704780B487B000AF7860144B5A6B99
:102FEC007B689B0013447B610023002B11D07B6911
:102FFC001B68104A93420AD07B69FB60FB68013B5B
:10300C00FB60FB68BB60BB6808331B6809E00023EE
:10301C0007E0074B5B6A3B617B689B003A69134492
:10302C001B6818461C37BD465DF8047B704700BF13
:10303C00BC19002099B6000080B485B000AF786050
:10304C0039600A4B1A6A7B689B001344FB60FB686F
:10305C001A683B689A4202D03A68FB681A6000BF53
:10306C001437BD465DF8047B704700BFBC190020C7
:10307C0080B500AF044B1B69184608F02BFB024BC4
:10308C0000221A6000BF80BDBC19002080B485B03E
:10309C0000AF78600B46FB701D4BDB691A467B68F2
:1030AC005A601B4B5A697B689A607B689B68FB6013
:1030BC00FB681B78BE2B14BF01230023FB72FB782B
:1030CC00002B1AD0FB7A83F00103DBB2002B14D057
:1030DC00FB680133FB60FB681B78BE2BF8D07B6868
:1030EC005B68FA68013AFA607A6892685242F96849
:1030FC000A449A1A7B681A6002E07B6800221A6004
:10310C00FB7A18461437BD465DF8047B704700BF48
:10311C00BC19002080B483B000AF786039607B6844
:10312C000F2B0AD94FF0E0227B68103B3968C9B2EB
:10313C0013440A4683F800240CE07B68032B09D95E
:10314C004FF0E0227B68043B3968C9B213440A464D
:10315C0083F8182D00BF0C37BD465DF8047B704713
:10316C0080B485B000AFF860B9607A60FB68BA686B
:10317C005A60FB687A681A6000BF1437BD465DF868
:10318C00047B704780B483B000AF78607B680F2BF2
:10319C0005D94FF0E0227B68103BC2F8003F00BF1E
:1031AC000C37BD465DF8047B7047000080B582B0DB
:1031BC0000AF78603960074B01221A71064B002B67
:1031CC0004D0054B39687868984700E000BF083791
:1031DC00BD4680BDBC190020E931000080B5A4B00B
:1031EC0002AF78603960204B01221A711E4B9B682C
:1031FC00002B03D11C4A07F10C039360786800F094
:10320C0039F80320FEF796FF0023002B04D0002290
:10321C00154B9B68184690474FF0E023D3F8043DBC
:10322C00DBB2C7F88430D7F884300E2B0CD8D7F823
:10323C0084207B6838331B68009313460B4A0021AB
:10324C00002003F027F80BE0D7F884207B68383394
:10325C001B6800931346064A0021002003F01AF85D
:10326C0000BF8837BD4680BDBC190020F4D00000DB
:10327C0088D1000080B588B000AF78600023FB6176
:10328C000023BB61904B9B68FB60FEF747FF034636
:10329C001A46FB681A707B6820331B681A46FB6859
:1032AC001A617B6824331B681A46FB685A617B6879
:1032BC0028331B681A46FB689A617B682C331B68A1
:1032CC001A46FB68DA617B681B681A46FB681A624F
:1032DC007B6804331B681A46FB685A627B680833A8
:1032EC001B681A46FB689A627B680C331B681A468B
:1032FC00FB68DA627B6810331B681A46FB681A633A
:10330C007B6814331B681A46FB685A637B68183356
:10331C001B681A46FB689A637B681C331B681A4649
:10332C00FB68DA637B6830331B681A46FB681A64E7
:10333C007B6803F14002FB685A647B6834331B687A
:10334C001A46FB689A647B6838331B681A46FB681C
:10335C00DA647B683C331B681A46FB681A65FB68A9
:10336C001B78032B46D801A252F823F0CD33000072
:10337C00AF33000089330000ED3300000123002B34
:10338C003AD002F0CFF80246FB685A6002F0CAF855
:10339C000346DB6AFB6102F0C5F803469B6ABB611E
:1033AC002AE00123002B29D001F024FE0246FB6801
:1033BC005A60454B5B69FB61434BDB69BB611DE0AC
:1033CC00FB681B6DDBB21846FFF704FE0246FB6878
:1033DC005A603D4B5B69FB613B4BDB69BB610EE0AB
:1033EC00FB6800225A60384B5B69FB61364BDB692A
:1033FC00BB6104E000BF02E000BF00E000BFFB685F
:10340C00BA69DA60FB68FA699A602F4BDB68002BAB
:10341C0013D0FB697B612C4BDB683B610AE07A695A
:10342C00531C7B613B69591C396112781A70BB695A
:10343C00013BBB61BB69002BF1D14FF0E023D3F80A
:10344C00043D1A46FB685A654FF0E02393F8283D7B
:10345C00DBB21A46FB689A654FF0E02393F8293DDE
:10346C00DBB21A46FB68DA654FF0E023B3F82A3D6D
:10347C009BB21A46FB681A664FF0E023D3F82C3D3A
:10348C001A46FB685A664FF0E023D3F8303D1A46D3
:10349C00FB689A664FF0E023D3F8343D1A46FB687C
:1034AC00DA664FF0E023D3F8383D1A46FB681A670A
:1034BC004FF0E023D3F83C3D1A46FB685A6700BF37
:1034CC002037BD4680BD00BFBC19002080B58AB036
:1034DC0000AFF860B9607A603B6001237B62012326
:1034EC003B62FEF71AF80123002B02D001F09EFF7D
:1034FC0078620123002B02D001F0ECFC3862002032
:10350C00FEF718FE0346FB770023002B0ED14FF07D
:10351C00E023D3F8043DDBB2BB61164B5B6A7B61E5
:10352C00BB699B007A6913441B683B603B68FA6873
:10353C009A600123002B0AD0FDF7FFFF3B685B6804
:10354C003A68126810469847FDF7E7FF05E03B68BC
:10355C005B683A68126810469847FB7F1846FEF77E
:10356C00E9FD7B6A1A023B6A134418462837BD46AC
:10357C0080BD00BFBC19002080B582B000AF786060
:10358C007B68DBB2184601F0E3FC00BF0837BD4690
:10359C0080BD80B582B000AF78607B681B0A18468E
:1035AC0001F09AFF00BF0837BD4680BD80B584B0DE
:1035BC0000AF3B1D00211846FFF768FDFB683B6020
:1035CC0005E03B68BE221A703B6801333B603A460B
:1035DC003B689A42F5D800BF00BF1037BD4680BD8E
:1035EC0080B483B000AF78607B681A460023136008
:1035FC0053609360D360136153617B6801221A722C
:10360C007B68E0221A617B6801221A7500BF0C37B7
:10361C00BD465DF8047B704780B400AF00BFBD466B
:10362C005DF8047B7047000080B487B000AFF86091
:10363C00B9607A603B60FB687B61BB689B083B614F
:10364C003B69013B3B613B699B007A6913443A6AD5
:10365C001A603B69013B3B613B699B007A691344EF
:10366C003A681A603B69013B3B613B699B007A6994
:10367C0013447A681A603B69013B3B613B699B00D0
:10368C007A691344BA6A1A603B69013B3B613B6936
:10369C009B007A6913447A6A1A603B69013B3B616F
:1036AC003B699B007A6913447D4A1A603B69013B74
:1036BC003B613B699B007A6913444FF0FF321A60FF
:1036CC003B69013B3B613B699B007A6913444FF0BA
:1036DC00FF321A603B69013B3B613B699B007A6995
:1036EC0013444FF0FF321A603B69013B3B613B696D
:1036FC009B007A6913444FF0FF321A603B69013B1F
:10370C003B613B699B007A6913444FF0FF321A60AE
:10371C003B69013B3B613B699B007A6913444FF069
:10372C00FF321A603B69013B3B613B699B007A6944
:10373C0013444FF0FF321A603B69013B3B613B691C
:10374C009B007A6913444FF0FF321A603B69013BCE
:10375C003B613B699B007A6913444FF0FF321A605E
:10376C003B69013B3B613B699B007A6913444FF019
:10377C00FF321A603B69013B3B613B699B007A69F4
:10378C0013444FF0FF321A603B69013B3B613B69CC
:10379C009B007A6913444FF0FF321A603B69013B7E
:1037AC003B613B699B007A6913444FF0FF321A600E
:1037BC003B69013B3B613B699B007A6913444FF0C9
:1037CC00FF321A603B69013B3B613B699B007A69A4
:1037DC0013444FF0FF321A603B69013B3B613B697C
:1037EC009B007A6913444FF0FF321A603B69013B2E
:1037FC003B613B699B007A6913444FF0FF321A60BE
:10380C003B69013B3B613B699B007A6913444FF078
:10381C00FF321A603B69013B3B613B699B007A6953
:10382C0013444FF0FF321A603B69013B3B613B692B
:10383C009B007A6913444FF0FF321A603B69013BDD
:10384C003B613B699B007A6913444FF0FF321A606D
:10385C003B69013B3B613B699B007A6913444FF028
:10386C00FF321A603B69013B3B613B699B007A6903
:10387C0013444FF0FF321A603B69013B3B613B69DB
:10388C009B007A6913444FF0FF321A603B699B002E
:10389C007A69134418461C37BD465DF8047B7047A3
:1038AC0065B5000090B58DB004AFF860B9607A6072
:1038BC003B60FB687B610123002B12D07B69DB6AC8
:1038CC00BB617B699B6AFB6107E0BB695A1CBA61EF
:1038DC00BE221A70FB69013BFB61FB69002BF4D122
:1038EC0008E00023002B05D07B69DB6ABB61BB6958
:1038FC00BE221A707B69D86A7B699B6A191F7B6927
:10390C005C6B7B699B6B7A69D26B02920193BB688F
:10391C0000937B682246FFF787FE38613B691846A7
:10392C002437BD4690BD80B483B000AF7860396059
:10393C007B681B78BE2B01D0002300E001231846C6
:10394C000C37BD465DF8047B704780B400AF08238C
:10395C001846BD465DF8047B704780B400AF012368
:10396C001846BD465DF8047B7047000080B582B0F8
:10397C0000AF786039603B68002B01D1054B3B6090
:10398C003968786800F008F87B6818460837BD4637
:10399C0080BD00BFF8CE000080B582B000AF78606B
:1039AC0039607B680C3300220121184601F032F992
:1039BC007B6800229A607B681946034800F004FF7C
:1039CC0000BF0837BD4680BDF819002090B583B004
:1039DC0000AF78607B689C6801F0A4FD03469C42B4
:1039EC000DD07B680C334FF0FF31184600F0CEFF42
:1039FC0001F098FD02467B689A60002300E00123E9
:103A0C0018460C37BD4690BD80B582B000AF7860CB
:103A1C0039603B68002B07D17B6800229A607B6879
:103A2C000C33184601F09AF800BF0837BD4680BD2C
:103A3C0080B584B000AF786039603B681B68082B98
:103A4C0005D87B6808229A620823FB6006E03B6875
:103A5C001A687B689A623B681B68FB603B685A6813
:103A6C007B68DA613B689A687B685A627B68DB69C1
:103A7C001A46FB68013B1340BB60BB68002B0FD0A0
:103A8C00FA68BB68D31ABB607B68DA69BB681A44F6
:103A9C007B68DA617B685A6ABB68D21A7B685A62A7
:103AAC007B685A6AFB68B2FBF3F3FA6802FB03F219
:103ABC007B685A627B6810331946054800F084FE17
:103ACC00786800F007F800BF1037BD4680BD00BF16
:103ADC00001A002080B485B000AF78607B68DB6989
:103AEC00FB60FB6800221A607B685A6AFB685A60AC
:103AFC007B68FA681A6200BF1437BD465DF8047B18
:103B0C007047000080B588B002AFF860B9607A6089
:103B1C003B600F48FFF75AFF78617A68B968F8681C
:103B2C0000F01AF8386179690948FFF76DFF3B69B5
:103B3C00002B08D1FA68BB6800931346054A002194
:103B4C00386802F0A7FB3B6918461837BD4680BDA4
:103B5C003061002014D2000080B58EB000AFF86048
:103B6C00B9607A607B687B62FB689B6A5A1E7B6AD1
:103B7C001340002B02D0FB689B6A7B62BB68FB6224
:103B8C00FB689B6A013BFA6A1340BB62BB6A002B61
:103B9C0006D0FB689A6ABB6AD31AFA6A1344FB62B2
:103BAC00FA6ABB689A4201D2002367E0FB682033B3
:103BBC007B637B6B1B683B635CE03B6B5B683B62D2
:103BCC007B6A5A1E3B6B1340BB62BB6A002B03D053
:103BDC007A6ABB6AD31ABB62FA6ABB6A13443A6A42
:103BEC009A4242D33A6BBB6A13441846FDF78AFCDF
:103BFC00F8613A6AFB6AD21ABB6AD31ABB61BB6A18
:103C0C00002B17D03B6BBA6A5A60BB69002B2AD0C9
:103C1C00FA69FB6A13441846FDF774FC78613B6B38
:103C2C001A687B691A607B69BA695A603B6B7A695E
:103C3C001A6018E0BB69002B11D0FA69FB6A1344B7
:103C4C001846FDF75FFC78613B6B1A687B691A605C
:103C5C007B69BA695A607B6B7A691A6003E03B6BCB
:103C6C001A687B6B1A60FB6908E03B6B7B633B6BF0
:103C7C001B683B633B6B002B9FD1002318463837E6
:103C8C00BD4680BD80B586B000AFF860B9607A6083
:103C9C000848FFF79BFE78617A68B968F86800F00D
:103CAC000BF879690348FFF7AFFE00BF1837BD4624
:103CBC0080BD00BF3061002080B489B000AFF860D7
:103CCC00B9607A60FB689B6A013B7A6813407B6140
:103CDC007B69002B06D0FB689A6A7B69D31A7A68D9
:103CEC0013447B60FB682033FB61BB683B61FB6961
:103CFC001B68BB6104E0BB69FB61BB691B68BB61F2
:103D0C00BB69002B03D0BA693B699A42F3D33B6978
:103D1C00BA691A603B697A685A60FB693A691A6039
:103D2C00BB69002B10D03A697B681A44BB699A4274
:103D3C000AD1BB691A683B691A603B695A68BB694E
:103D4C005B681A443B695A60FB682033FA699A42F3
:103D5C0012D0FB695A68FB691A443B699A420BD131
:103D6C003B691A68FB691A60FB695A683B695B68B6
:103D7C001A44FB695A6000BF00BF2437BD465DF88A
:103D8C00047B704780B582B000AF7860FFF7E5FD2B
:103D9C00034618460837BD4680BD000080B584B088
:103DAC0000AF786039607B685A6A3B681A603B6880
:103DBC0000225A603B6800229A601348FFF706FE07
:103DCC00B8607B681B6AFB6013E03B685A68FB6851
:103DDC005B681A443B685A603B689A68FB685B688E
:103DEC009A4203D2FB685A683B689A60FB681B686E
:103DFC00FB60FB68002BE8D1B9680348FFF704FEB1
:103E0C0000BF1037BD4680BD3061002080B500AFCB
:103E1C0000210248FFF7AAFD00BF80BD30610020E1
:103E2C0080B582B000AF786039603B68002B01D15F
:103E3C000B4B3B6039687868FFF7FAFD7B68094AE1
:103E4C001A607B68084A5A607B68084A9A607B68EB
:103E5C00074ADA607B6818460837BD4680BD00BF4C
:103E6C00FCCE0000113B0000913C0000913D000095
:103E7C00A93D000080B483B000AF78607B6800225D
:103E8C001A607B6800225A607B6800229A6000BF2F
:103E9C000C37BD465DF8047B7047000080B586B0DA
:103EAC0000AF204B93F86530002B36D11D4B01220F
:103EBC0083F8652000211B4800F0B7FC0123002B80
:103ECC0020D00123002B1DD000F0C2FF3B1D184653
:103EDC0001F080F905233B610123012B09D13A1D27
:103EEC00114B1249124801F08BF903460D4AD36469
:103EFC0008E03A1D0C4B0F490D4801F081F90346BF
:103F0C00084AD3640023002B08D1FEF791F9FEF781
:103F1C00B5F90346034A936500E000BF1837BD4668
:103F2C0080BD00BF081A00208421002081410000C0
:103F3C00181A00200540000080B584B000AF0123A2
:103F4C00012B0CD1FDF7E9FAB8600020FEF7AEF9B1
:103F5C007860B868FDF702FB7B68FB6002E0044BFD
:103F6C009B68FB60FB6818461037BD4680BD00BFE0
:103F7C00081A002080B584B000AF0023002B16D1A6
:103F8C00FDF7CBFAB8600020FEF790F978600F4B84
:103F9C005A6D7B68D31AFB600C4B9B6DFA689A4286
:103FAC0001D90023FB60B868FDF7D8FA08E00023BC
:103FBC00022B03D14FF0FF33FB6001E00023FB60C9
:103FCC00FB6818461037BD4680BD00BF081A00209C
:103FDC0080B582B000AF786039607868FEF758F928
:103FEC00044A7B681365034A3B68536500BF083776
:103FFC00BD4680BD081A002080B58AB000AF78603D
:10400C003960FDF78AFAB8612B4B9B687B612A4BB0
:10401C00DB683B62284B0022DA60B869FDF79EFA38
:10402C007A693B6AD31AFB613DE0FB690133FB61A2
:10403C003B6A013B3B62204B3B61386900F076FBED
:10404C007862786A00F0B4FBF86028E07B6ABB60A9
:10405C00786A00F0A1FB7862BB681B7DDBB2002B99
:10406C001DD0BB68DB68FA699A4218D1BB681B6922
:10407C00002B03D1BB6800221A750AE0BB68DA6812
:10408C00BB681B691A44BB68DA60BB681A69BB68F9
:10409C001A62BB689B69BA68D269104698477A6AFB
:1040AC00FB689A42D2D13B6A002BBED100BF00BF45
:1040BC002837BD4680BD00BF081A002080B588B0E7
:1040CC0000AF03463960FB714FF0FF33FB61284BA7
:1040DC007B61786900F02AFBB861B86900F068FB75
:1040EC0038613BE0BB69FB60B86900F055FBB86117
:1040FC00FB681B7DDBB2002B30D0FB79002B1DD075
:10410C00FB68DB683A689A4218D1FB681B69002B84
:10411C0003D1FB6800221A750AE0FB68DA68FB68B9
:10412C001B691A44FB68DA60FB681A69FB681A623F
:10413C00FB689B69FA68D26910469847FB681B7D3F
:10414C00DBB2002B0AD0FB68DA683B68D31ABB6081
:10415C00BA68FB699A4201D2BB68FB61BA693B69D8
:10416C009A42BFD1FB6918462037BD4680BD00BFBF
:10417C00081A002080B58CB000AF78603960FDF76C
:10418C00CCF9B8610120FEF791F878613D4B012222
:10419C0083F85C203B4B002283F85D20394B5B6D30
:1041AC00BB627A69BB6AD31A7B62364B9B68BA6A6C
:1041BC00D31A3B61334B9B687A69D31AFB603A691B
:1041CC00FB689A4207D92F4B002283F85C20B86910
:1041DC00FDF7C4F952E0B869FDF7C0F90023FB62A2
:1041EC000CE0BA6AFB6A1344BB627A6AFB6AD31AA4
:1041FC007B62B96A0120FFF761FFF8627A6AFB6A99
:10420C009A42EED2FDF789F9B8611E4B93F85D30F6
:10421C00DBB2002B04D0B96A0020FFF74FFFF86225
:10422C00FB6AB3F1FF3F07D1164B9B6D3B62BA6A39
:10423C003B6A1344FB610FE0FA6A7B6AD31A3B6258
:10424C00104B9B6D3A6A9A4202D90E4B9B6D3B62A6
:10425C00BA6A3B6A1344FB61F969386AFFF7B8FE26
:10426C00084B012283F85E20064B002283F85C2069
:10427C00044ABB6A9360B869FDF770F93037BD46E4
:10428C0080BD00BF081A002080B500AF0123002BB1
:10429C0004D10E4B9B6801330C4A93600123012B14
:1042AC000DD00A4800F016FA034683F00103DBB286
:1042BC00002B04D0054BDB680133044AD360034B5D
:1042CC00DB6C184600F03CFF00BF80BD081A0020D4
:1042DC0080B586B000AFF860B9607A603B60FB686F
:1042EC007A689A603B685A68FB681A61FB68BA681E
:1042FC009A613B689A68FB68DA61FB6800221A7560
:10430C00084B7B61FB681946786900F05DFA3B68E5
:10431C001B78002B02D0F86800F0CAF800BF1837E1
:10432C00BD4680BD081A002080B584B000AF78600F
:10433C00FDF7F3F8F8607B68184600F062FAF8684D
:10434C00FDF70CF900BF1037BD4680BD80B485B0B9
:10435C0000AFF860B9607A603B60FB687A689A607D
:10436C00FB6800221A61FB68BA689A61FB683A68BC
:10437C00DA61FB6800221A7500BF1437BD465DF880
:10438C00047B704780B584B000AF7860054BFB6050
:10439C007B681946F86800F0AFF900BF1037BD46CE
:1043AC0080BD00BF081A002080B582B000AF7860D5
:1043BC007B68184600F025FA00BF0837BD4680BD63
:1043CC0080B588B000AF78607B689A687B681A62A9
:1043DC000123012B5CD10023FB77344B93F85E3027
:1043EC00002B39D0314B93F85C3083F00103DBB2F6
:1043FC00002B31D00120FDF759FFB8612B4B9B6886
:10440C00BA69D31A7B61294B5A6D284B9B68D31A16
:10441C003B617A693B699A421ED80123FB777B6822
:10442C009A68BB691A447B68DA607B6801221A754A
:10443C001E4B5B6DFB60FA68BB69D31ABB607B6873
:10444C009B68BA689A4207D97B689A687B68DB6874
:10445C0019461046FFF7BCFDFB7F83F00103DBB26E
:10446C00002B1FD0FFF768FDB8617B689A68BB69A9
:10447C001A447B68DA607B6801221A750B4B93F83F
:10448C005C30002B0ED0094B012283F85D2009E033
:10449C00064B9A687B689B681A447B68DA607B6879
:1044AC0001221A7500BF2037BD4680BD081A0020B6
:1044BC0080B584B000AF7860FDF72FF8F8607868AD
:1044CC00FFF77EFFF868FDF749F800BF1037BD46CF
:1044DC0080BD80B483B000AF78607B6800221A7511
:1044EC0000BF0C37BD465DF8047B704780B483B0C9
:1044FC0000AF786039607B683A689A6000BF0C370F
:10450C00BD465DF8047B704790B585B000AF786010
:10451C000023FB60FDF701F8B8607B681B7DDBB204
:10452C00002B0DD07B68DC68FFF706FD0346E31A11
:10453C00FB607B681B6AFA689A4201D90023FB6016
:10454C00B868FDF70BF8FB6818461437BD4690BDEC
:10455C0080B483B000AF78607B681B7DDBB21846FB
:10456C000C37BD465DF8047B704780B483B000AF58
:10457C0078607B6800221A707B6800225A607B6826
:10458C0000229A6000BF0C37BD465DF8047B704773
:10459C0080B584B000AFF860B9607A603B603B686E
:1045AC00002B01D1064B3B603B687A68B968F86810
:1045BC00FFF78EFEFB6818461037BD4680BD00BF66
:1045CC0008CF000080B582B000AF78607868FFF744
:1045DC00ABFE00BF0837BD4680BD000080B58AB079
:1045EC0000AF124B1B78002B1CD1104B01221A7000
:1045FC003B1D184601F02CFD00233B610C4B7B61ED
:10460C004FF40073BB61012387F82430094B7B60A6
:10461C003A1D00230849094801F034FD084B074AAC
:10462C005A6300E000BF2837BD4680BD80210020C2
:10463C00585E002060CD000051460000A05C0020B8
:10464C00A01A002080B582B000AF7860396000F00D
:10465C0001F8FCE780B582B000AF00237B6007E077
:10466C00074A7B6852F8233098477B6801337B609C
:10467C007B68012BF4DD00BF00BF0837BD4680BD51
:10468C006819002080B483B000AF786039607B6813
:10469C007A685A607B687A681A6000BF0C37BD462E
:1046AC005DF8047B704780B485B000AF78607B68A0
:1046BC001B68FB60FB681B68BB607B68BA681A6090
:1046CC00BB687A685A60FB6818461437BD465DF8BB
:1046DC00047B704780B483B000AF78607B681B6844
:1046EC007A689A420CBF01230023DBB218460C37C0
:1046FC00BD465DF8047B704780B485B000AF786030
:10470C0039607B685B68FB603B687A681A603B6861
:10471C00FA685A60FB683A681A607B683A685A60B3
:10472C0000BF1437BD465DF8047B704780B483B07E
:10473C0000AF78607B681B6818460C37BD465DF887
:10474C00047B704780B483B000AF78607B687A6874
:10475C005A607B687A681A6000BF0C37BD465DF8FA
:10476C00047B704780B485B000AF786039607B689B
:10477C005B68FB603B687A681A603B68FA685A6051
:10478C00FB683A681A607B683A685A6000BF143755
:10479C00BD465DF8047B704780B483B000AF786091
:1047AC007B681B6818460C37BD465DF8047B704768
:1047BC0080B483B000AF78607B685B6818460C37B8
:1047CC00BD465DF8047B704780B584B000AF78605F
:1047DC003960FCF7A2FEF8603B687A681A607B6867
:1047EC005A683B685A607B685B683A681A607B68F9
:1047FC003A685A60F868FCF7B1FE00BF1037BD4646
:10480C0080BD80B483B000AF78607B685B687A68E9
:10481C0012681A607B681B687A6852685A6000BF1D
:10482C000C37BD465DF8047B704780B582B000AF95
:10483C007860396039687868FFF724FF7B68184620
:10484C000837BD4680BD80B582B000AF786078680F
:10485C00FFF778FF00BF0837BD4680BD90B587B025
:10486C0000AFF860B9607A60FB6814337B617B68D9
:10487C001A78FB681A74BB689AB2FB685A820021DA
:10488C007869FFF7D2FF0023002B29D07B685B6887
:10489C00002B25D07B685A68FB689A607B689A6805
:1048AC00FB68DA60FCF739FE3861BB68002B0BD073
:1048BC003869FCF753FE0024FB689A68FB68DB68D8
:1048CC0019461046A04711E00024FB689868FB6865
:1048DC00DB6800221946A0473869FCF73FFE05E06B
:1048EC00FB6800229A60FB680122DA60FB681946BB
:1048FC000348FFF769FF00BF1C37BD4690BD00BFE2
:10490C00701A002090B585B000AF78607B681433C6
:10491C00FB60F868FCF73AFE03461846FFF793FF76
:10492C000023002B0BD07B689B68002B07D0002446
:10493C007B6898687B68DB6800221946A04700BF3B
:10494C001437BD4690BD80B584B000AF78607868F0
:10495C00FCF7D8FDF860FCF7E0FDB860FB681B7C49
:10496C00022B0CD1FB681846FFF74BFFFB680022AB
:10497C001A74FB689B68B968184601F0E5F9B868C9
:10498C00FCF7ECFD00BF1037BD4680BD90B597B06D
:10499C0000AF786039600123002B1CD03B68B3F169
:1049AC00FF3F18D03B68002B15D007F108031846C1
:1049BC00FCF7F7FD07F12C033A686749FFF7C6FCD3
:1049CC0007F108031846FCF7ECFD0346BB63022312
:1049DC0087F83C3004E00023BB63032387F83C30AA
:1049EC007B6814333B65FCF798FDF8647B685B8A45
:1049FC009BB2002B40F090803B68002B04D1F86CEC
:104A0C00FCF7ACFD0023A3E000F010FDB86400F04F
:104A1C0089FD03467B637B6B07F12C025A627B6B2F
:104A2C00184601F035F90023002B2CD07B681B7C39
:104A3C0003F00203002B26D0386DFFF777FE786564
:104A4C007B6B184601F076F878640EE07B6D9B6802
:104A5C003B64386C01F06EF802467B6C934209DCC7
:104A6C007B6D1846FFF798FE78657A6D3B6D9A4220
:104A7C00ECD100E000BF7B6D07F12C02114618460B
:104A8C00FFF770FE05E007F12C031946386DFFF7B0
:104A9C0033FE0123002B0BD097F83C30022B07D1AF
:104AAC00BB6B1846FFF76EFCBB6B1846FFF788FC18
:104ABC00F86CFCF753FDB86C00F0E4FCFCF72DFD32
:104ACC00F8640023002B0DD07B689B68002B09D069
:104ADC0000247B6898687B68D9687B685B8A9BB28A
:104AEC001A46A0470123002B08D0BB6B002B05D026
:104AFC00BB6B1846FFF758FC0023BB637B6B002293
:104B0C005A62F86CFCF72AFD97F83C30002B14BF66
:104B1C0001230023DBB21BE07B685B8A9BB2013B69
:104B2C009AB27B685A820023002B0DD07B689B685D
:104B3C00002B09D000247B6898687B68D9687B6857
:104B4C005B8A9BB21A46A047F86CFCF707FD012361
:104B5C0018465C37BD4690BD5349000090B587B0F0
:104B6C0000AF78607B6814337B6100F05FFC3861C8
:104B7C00FCF7D3FCF8607869FFF7ACFD0346002B1B
:104B8C0026D07B681B7C03F00103002B03D07B68D1
:104B9C0001225A8206E07B685B8A9BB201339AB28F
:104BAC007B685A82F868FCF7D9FC0023002B0BD0E9
:104BBC007B689B68002B07D000247B689A687B6815
:104BCC00DB6819461046A047386900F05BFC1EE014
:104BDC007869FFF768FDB860BB6801221A7401237D
:104BEC00002B08D0BB68DB68002B04D0BB68DB68EB
:104BFC001846FFF76EFCBB689B68F968184601F015
:104C0C00A3F8F868FCF7AAFC386900F03BFC1C37E9
:104C1C00BD4690BD80B584B000AFF860B9607A60D5
:104C2C007B68002B01D1064B7B607A68B968F86809
:104C3C00FFF714FEFB6818461037BD4680BD00BF59
:104C4C0014CF000080B584B000AF78607868FFF7AF
:104C5C0059FEFCF762FCF8607B681846FFF7D1FD43
:104C6C00F868FCF77BFC00BF1037BD4680BD80B4F4
:104C7C0083B000AF78607B6800221A707B680022DA
:104C8C005A607B6800229A6000BF0C37BD465DF805
:104C9C00047B704780B485B000AF78607B68B3FA52
:104CAC0083F3C3F11F03FB60FB6818461437BD4642
:104CBC005DF8047B7047000080B586B000AF78606B
:104CCC00214B1B697B61204B5B693B611E4B9B69D4
:104CDC00FB607B685B6B1C4A93611B4A7B6853616E
:104CEC007B681B6B184A13617B68DA6A7B681A63F2
:104CFC007B68002283F82820134B00221A720120B3
:104D0C00FDF718FA0346FB72FCF717FC7B685B692E
:104D1C007A6890697A68D26911469847FCF7FDFB6E
:104D2C00FB7A1846FDF706FA074B01221A72064A5F
:104D3C00FB689361044A3B695361034A7B691361C5
:104D4C0000BF1837BD4680BD781A002090B585B0DD
:104D5C0000AF1E4B9B69BB601C4BDC691B4BDB68BB
:104D6C001846FFF797FF0346DB002344FB60F86807
:104D7C00FFF799FC7860F868FFF7ACFC0346002B52
:104D8C0007D0124BDA687B685B6ADB4313400F4A2F
:104D9C00D3607868FFF790FF0C4BDB68002B0FD0CB
:104DAC000A4BDC69094BDB681846FFF773FF0346B7
:104DBC00DB002344FB60FA68BB689A42D7D800E05A
:104DCC0000BF00BF1437BD4690BD00BF781A00204D
:104DDC0090B585B000AF1C4B9B69BB60FCF79DFB8D
:104DEC007860194BDC69184BDB681846FFF752FFEB
:104DFC000346DB0023443B603A68BB689A4218D9EF
:104E0C000123002B06D000F011FBF8600F4806F0D0
:104E1C0051FC01E0FFF79AFF0B4B00221A727868E5
:104E2C00FCF79CFB0123002B09D0F86800F02AFB4F
:104E3C0005E0054B00221A727868FCF78FFB00BF67
:104E4C001437BD4690BD00BF781A0020594D0000A4
:104E5C0080B582B000AF124B93F82430002B1AD1DE
:104E6C000F4B012283F824200123002B14D00023A4
:104E7C007B600BE00A4BDA697B68DB001344002192
:104E8C001846FFF7D2FC7B6801337B607B680622F7
:104E9C009342EFD300E000BF0837BD4680BD00BF92
:104EAC00781A002080B500AF002000F027F800BF72
:104EBC0080BD000080B400AF054B1B7ADBB283F0E1
:104ECC000103DBB21846BD465DF8047B704700BF9A
:104EDC00781A002080B483B000AF074B1B7ADBB28A
:104EEC007B60054B01221A727B6818460C37BD4655
:104EFC005DF8047B704700BF781A002080B584B041
:104F0C0000AF78607B68002B1BD1FCF706FBF860C8
:104F1C000E4BDB68002B05D0F868FCF71FFBFFF786
:104F2C0057FF05E0094B00221A72F868FCF716FBD4
:104F3C000123002B05D000F079FA0346184600F047
:104F4C00A1FA00BF1037BD4680BD00BF781A002003
:104F5C0090B587B000AF78607B68002B43D1244BB1
:104F6C00DB68002B3CD0FCF7E8FAFCF7D6FA204BB8
:104F7C009B693B611E4BDC691D4BDB681846FFF7D8
:104F8C0089FE0346DB0023447B6123E07869FFF74D
:104F9C008AFBF8607869FFF79DFB0346002B07D06E
:104FAC00134BDA68FB685B6ADB431340104AD3602F
:104FBC00F868FFF781FE0E4BDB68002B0FD00C4B13
:104FCC00DC690B4BDB681846FFF764FE0346DB001D
:104FDC0023447B617A693B699A42D7D800E000BFD1
:104FEC00034B00221A7200BF1C37BD4690BD00BF98
:104FFC00781A002080B400AF034B5B691846BD469D
:10500C005DF8047B704700BF781A002080B400AFB5
:10501C00034B1B691846BD465DF8047B704700BF07
:10502C00781A002080B586B000AFF860B9607A605D
:10503C00094B7A68B968F86800F0E2F8FB685B69BC
:10504C00002B02D100237B6101E0FB687B617B6953
:10505C0018461837BD4680BD8421002080B586B027
:10506C0000AFF860B9607A603B60FB681846FFF7E8
:10507C0069FB7B681A68FB681A61FB68BA685A613D
:10508C007B685A68FB689A617B689A68FB68DA618E
:10509C007B68DB68B3F1FF3F04D106235A1EFB6823
:1050AC001A6203E07B68DA68FB681A62FB681B6AA9
:1050BC0001229A40FB685A62FB68002283F8282080
:1050CC007B681A69FB681A637B681A69FB68DA6289
:1050DC000E4BDA69FB681B6ADB001A44FB685A63E7
:1050EC003968F86800F014F878617B69002B02D0FD
:1050FC007B69023306E0FB68083319460348FFF767
:10510C0063FB002318461837BD4680BD781A002073
:10511C0080B483B000AF78603960002318460C3738
:10512C00BD465DF8047B704780B483B000AF7860F7
:10513C0039603B68012B0C37BD465DF8047B70472A
:10514C0080B584B000AF7860FCF7E7F9F8607B6855
:10515C0093F82830002B03D0F868FCF7FFF91CE01B
:10516C007B68012283F82820FFF7B4FEB8607B68C7
:10517C005B6B7A6811461846FFF7BEFA084BDA6883
:10518C007B685B6A1343064AD360F868FCF7E6F960
:10519C00BB68002B01D1FFF71BFE1037BD4680BD4D
:1051AC00781A002080B584B000AF78603960FCF7C5
:1051BC00B4F9F8607B681A6B3B681A437B681A6316
:1051CC00F868FCF7CBF97868FFF7BAFF00BF103727
:1051DC00BD4680BD80B483B000AF78607B681A4652
:1051EC000023136053609360D36013617B680522C6
:1051FC00DA6000BF0C37BD465DF8047B70470000D9
:10520C0080B586B000AFF860B9607A603B607B68AF
:10521C00002B01D10B4B7B603B687A68B968F8684E
:10522C00FFF71CFF78617B69002B05D07969F86862
:10523C00FFF77AFF0023FB60FB6818461837BD4662
:10524C0080BD00BF20CF000080B584B000AF786077
:10525C00FCF763F9F8607B6808331846FFF7D1FA5E
:10526C00F868FCF77BF900217868FFF75DFF00BF59
:10527C001037BD4680BD000090B585B000AF214B06
:10528C0000221A7401E000F0A1FD1E4BDB68002B1C
:10529C00F9D01C4B1C6A1B4BDB681846FFF7FAFC59
:1052AC000346DB002344FB60164BDB69FA689A4229
:1052BC001ED9144B9B69BB60124AFB68D361F8681A
:1052CC00FFF734FA03460F4A93610E4B9B697B60E0
:1052DC000023002B03D07968B86800F02FF9BB6865
:1052EC0003F11C027B681C331946104606F020F9AA
:1052FC00044B1B7CDBB2002BC1D100BF00BF1437A9
:10530C00BD4690BDA01A002080B500AF064B1B7C9B
:10531C00DBB2002B01D0FFF7AFFF034B00221A7258
:10532C00FCF70BF900BF80BDA01A002080B582B03D
:10533C0000AF174B93F83830002B25D1144B0122BA
:10534C0083F838200123002B1FD0FEF765F90023CA
:10535C007B600BE00E4B1A6A7B68DB001344002168
:10536C001846FFF762FA7B6801337B607B68062284
:10537C009342EFD30023002B07D0064B04489847E9
:10538C000346054A136000E000BF0837BD4680BDE8
:10539C00A01A0020895E0000305D002090B599B005
:1053AC0000AFFCF7BAF83B46FB6501E000F00EFDE0
:1053BC001D4BDB68002BF9D01B4B1C6A1A4BDB68AE
:1053CC001846FFF767FC0346DB002344BB65164A0F
:1053DC00BB6DD361B86DFFF7A9F90346124A93610F
:1053EC00114B00221A740220FCF7A4FE0023002BA0
:1053FC0005D00D4B9B691946002000F09FF8FCF777
:10540C009CF8FCF78AF8FDF733FEFB6D03F11C02E8
:10541C00054B9B691C331946104606F089F800BFF2
:10542C006437BD4690BD00BFA01A002080B584B083
:10543C0002AF104B1B7ADBB27B600E4B01221A724F
:10544C000023002B10D00C4A0C4B1B681946094842
:10545C0090470346002B07D0002300930023084AF3
:10546C000021002000F016FF7B6818460837BD4667
:10547C0080BD00BFA01A00202D5E0000305D002012
:10548C00A4D2000080B582B000AF78607B68002B9E
:10549C001BD1FCF742F80F4B1B7CDBB2002B0FD05F
:1054AC00012383F00103DBB2002B07D10123002B76
:1054BC0006D0FFF7FFFC0346002B01D0FFF7DCFE04
:1054CC00044B00221A72FCF738F800BF0837BD46AF
:1054DC0080BD00BFA01A002080B582B000AF7860FC
:1054EC007B68002B17D10E4B1B7CDBB2002B0FD033
:1054FC00012383F00103DBB2002B07D10123002B26
:10550C0006D0FFF7D7FC0346002B01D0FFF7B4FE03
:10551C00034B00221A7200BF0837BD4680BD00BF86
:10552C00A01A002080B400AF034B9B691846BD46FF
:10553C005DF8047B704700BFA01A002080B586B0D0
:10554C0002AF786039600023002B24D07B68002BDD
:10555C0010D0444A7B681B6D194678689047034607
:10556C00002B07D07B68002200923F4A00210020CC
:10557C0000F090FE3B4A3B681B6D1946386890471B
:10558C000346002B07D03B6800220092374A0021CB
:10559C00002000F07FFE7B68002B5ED07B68DA6A0F
:1055AC007B689B6A19461046FEF7BDF9034683F0EB
:1055BC000103DBB2002B07D07B68002200922C4A3F
:1055CC000021002000F066FE3B68DA6A3B689B6AAB
:1055DC0019461046FEF7A7F9034683F00103DBB228
:1055EC00002B07D03B6800220092224A00210020A9
:1055FC0000F050FE07F10C037A68D26A934208D38C
:10560C0007F10C037A68D16A7A68926A0A44934269
:10561C0009D97A6807F10C0300931346164A002146
:10562C00002000F037FE3B68DA693B68DB6A9A427F
:10563C0008D33B68DA693B68D96A3B689B6A0B44C0
:10564C009A420BD93A683B68DB69009313460B4AC4
:10565C000021002000F01EFE00E000BF1037BD4608
:10566C0080BD00BF155F00001CD3000098D3000064
:10567C0014D4000090D400000CD5000090D500008C
:10568C0080B584B000AF78607B6893F84830002B0D
:10569C0014D0FBF742FFF8600A4B5B69013B094AE7
:1056AC005361084B5B69002B05D1F868FBF756FF7B
:1056BC000020FCF76FFDF868FBF750FF00BF1037B8
:1056CC00BD4680BDA01A002080B584B000AFFFF7A6
:1056DC0029FFB860FFF7AAFE7860FBF71EFF386061
:1056EC00B86800F0D5FABB68032283F82020B868AC
:1056FC00FFF7C6FF3868FBF731FFBB681846FFF7AA
:10570C0021F80023002B19D000F082FCF86012E085
:10571C00BA68FB689A420AD1BB680C4ADA64BB6867
:10572C00DB6CBA6811461846FFF74EF806E0F868CD
:10573C0000F07CFCF860FB68002BE9D17868FFF77F
:10574C00A1FE00BF1037BD4680BD00BFC41A0020AB
:10575C0080B588B000AFF860B9607A603B607B6858
:10576C001A68FB681A617B68DA68FB685A617B68A7
:10577C009B69002B04D1564B1A68FB681A6303E033
:10578C007B689A69FB681A637B685B69002B03D1A1
:10579C004FF40073FB6102E07B685B69FB61FEF711
:1057AC00D4F8B8617B681B69002B32D0BB69002B25
:1057BC0023D07B681B697B61BA697B691344013B0D
:1057CC007B61BB695B427A6913407B617869FBF74B
:1057DC0099FE0246FB68DA627B681B691A467B6994
:1057EC00D21AFB691A44FB689A62FB689A6ABB6915
:1057FC005B421A40FB689A6206E07B681A69FB6898
:10580C00DA62FB68FA699A62FB684FF0FF321A633E
:10581C0025E00123002B20D0BB69002B09D0BA69ED
:10582C00FB6913445A1EBB695B421A40FB689A62BF
:10583C0002E0FB68FA699A62FB68186BFB68996A6C
:10584C003B68BA6900F04AFD0246FB68DA62FB6805
:10585C00DB6A002B03D1012335E0012333E0FB6825
:10586C00BA685A637B685A68FB689A637B689A6863
:10587C00FB68DA637B68DA69FB681A647B6893F807
:10588C002020FB6883F84820FB6893F84830002BF5
:10589C0004D0104B5B6901330E4A5361FB68002244
:1058AC005A653968F86800F017F838613B69002BC5
:1058BC0002D03B69023306E0FB6808331946054801
:1058CC00FEF782FF002318462037BD4680BD00BF7F
:1058DC0058610020A01A002080B586B000AF786017
:1058EC0039603B68304A31497868FDF7DBFF024686
:1058FC007B68DA617B68DB69002B01D101234EE008
:10590C007B68012283F820207B6800225A620023E6
:10591C00002B10D0264A264B9A4206D1786800F00C
:10592C000BFB02467B681A6505E0214B78689847AB
:10593C0002467B681A657B685B69002B0DDA7B6815
:10594C0000229A617B681B4ADA647B68DB6C7A689C
:10595C0011461846FEF738FF20E07B685B691A4653
:10596C00012303FA02F27B689A61134B1A6A7B6873
:10597C005B69DB0013447B617B687A69DA64FFF74F
:10598C0055FD3861FBF7C9FDF860786800F0CAF97D
:10599C00F868FBF7E3FD3869FFF774FD0023184640
:1059AC001837BD4680BD00BFD5560000155300000A
:1059BC00455F0000CC1A0020A01A002080B586B0EC
:1059CC0002AF786039603B68002B75D1FFF72EFD74
:1059DC00F8600023002B12D0786800F039F90346E8
:1059EC00032B0CD17B68DB6C434A934207D17B6859
:1059FC0000220092414A0021002000F04BFCFBF7F2
:105A0C008CFDB8607B6893F82030012B25D17B6826
:105A1C001846FEF7F6FE7B68DB6C1846FEF75AFE5E
:105A2C000346002B07D0364BDA687B689B69DB4357
:105A3C001340334AD3607B685B6A002B0DD0012383
:105A4C00002B0AD07B685B6ADB68002B05D07B6877
:105A5C005B6ADB681846FEF7A7FC7B6893F820307E
:105A6C00022B16D17B685B6A002B12D07B685B6AB9
:105A7C001846FEF7C6FE0123002B0AD07B685B6A32
:105A8C00DB68002B05D07B685B6ADB681846FEF789
:105A9C008BFC7B6893F82030032B04D17B68184671
:105AAC00FEF7AFFE02E07868FFF7EAFDB868FBF797
:105ABC0055FDF868FFF7E6FC3B68012B16D0012377
:105ACC00002B0DD07B681B6BB3F1FF3F08D07B68BC
