:020000040000FA
:06000000020AEC0201F40B
:03002B0002076564
:03003300020216B0
:030053000201297E
:03007B000206C3B7
:100083000201880020FD00020300030003000300B7
:100093000300030003000300030005000A0014002B
:1000A30028004F009E000000DC1B000000003C1AEB
:1000B30000000000FF000000FF000000D013C81282
:1000C3000000000000000000121400000000000007
:1000D300000000000000000000000000000000001D
:1000E30000000000000096009600BF64000000FFBF
:1000F30000035F005F0030005800000000000000B4
:1001030000000000000000000000000000000000EC
:10011300000000000000000000007605CB05CB05C1
:10012300CB05CB05D305C0E074F1120517A2AFE4EC
:1001330033F509D2AF85A708AFA1EF5508FE7410B8
:100143005E6006120B7E75A1EF74085E6008120BE9
:100153008475A1F78024EFA2E092F0E508A2E08283
:10016300F05017906198E0F890053DE0C398A2D253
:1001730065D0335002E8F075A1FEE509A2E092AF25
:100183007F020205D3C0E074F2120517A2AFE43375
:10019300FED2AF9061A4E0F8759B00E59158540836
:1001A30060087591F7120BD88023E59158541060BD
:1001B300087591EF120BDE8014E591A2E092F0E84E
:1001C300A2E082F05007E0C2E0F0120D349061A388
:1001D300E0F8E5E9585404600E120D0475E9FB904C
:1001E3006193E0A2E640F2EEA2E092AF7F01020546
:1001F300D3C0E074F2120517A2AFE433FED2AF907E
:1002030061A5E0F8E5BF585404600675BFFB120D05
:100213004C80D4C0E074F1120517E59DA2E650FAB4
:10022300906206E0F9A2E25034AA2CEA90620BF045
:10023300F508852D0974047808120B0BE508906204
:1002430007F08A08852D0974097808120B0BE50855
:10025300543E906209F0906201E0D2E0F0E978291F
:1002630046F6906202E0F5087509007404780812F6
:100273000A887829E50846F608E50946F6906204F7
:10028300E0F50875090074097808120A88782AE5E8
:100293000946F6E9A2E05003752B01740659600381
:1002A300752B00E58BA2E55006758BDF752B0012CD
:1002B300158C758B00C2E87F020205D3C3E498F85E
:1002C300E499F91203008026C3E49AFAE49BFBE95C
:1002D30020E7E9120300E498F8E499F922C3E498CB
:1002E300F8E499F9120300E498F8E499F9C3E49A5D
:1002F300FAE49BFB22EB20E7CFE920E7E0B900100B
:10030300BB0008E88AF084F8AAF022E4FBC8FA22CA
:10031300EB70227B10C833C8C933C9335007C39A63
:10032300C3DBF280069A50012ADBEAC833F4C8C95A
:1003330033F4C9FA2275F008E4C833C8C933C933A2
:10034300C99AC99B5004C92AC93BD5F0ECFBC833F1
:10035300F4C8E4C9FA22080808EAC0E0EBC0E08662
:10036300F0E7A4FA180986F0E7A42AFA180986F038
:10037300E7A42AFA180986F0E7A42AFA1986F0E70F
:10038300A4FBE5F02AFA190886F0E7A42BFBE5F0B5
:100393003AFA190886F0E7A42BFBE5F03AFA1818A5
:1003A3000986F0E7A4C5F02BFBE43AFA1908E7C580
:1003B300F0C6A426F6E5F03BFBE43AFA1886F0E72C
:1003C300A4F6E5F00826F6E43B08F6E43A08F6D08E
:1003D300E0FBD0E0FA22E4CFC0E0E4CEC0E0E4CD1D
:1003E300C0E0E4CCC0E075F020E626F608E633F67C
:1003F30008E633F608E633F6181818EC33FCED3349
:10040300FDEE33FEEF33FFC3EC9709ED9709EE974B
:1004130009EF97191919400FFFEC97FC09ED97FDA8
:1004230009EE97FE191906D5F0BFECF709EDF709A8
:10043300EEF709EFF7191919D0E0FCD0E0FDD0E091
:10044300FED0E0FF222518C582C0E0E51934FFC5C0
:1004530083C0E0E518C3958224F810AF088583199B
:100463008582188008858319858218D2AFCEF0A3C0
:10047300E520F0A37808E608F0A3DEFAEFF0A3E5A1
:100483008124FAF8E608F0A3E608F0A3E608F0A34F
:100493000808E608F0A3E608F0A315811581D0E06B
:1004A300FED0E0F8158115811581E8C0E0EEC0E0CB
:1004B30022120B5AB90003020501E47921780DB821
:1004C30000028004F709D8FCE49004D17854790D34
:1004D3008002F0A3D8FCD9FA7A247B1190008678A5
:1004E300A479018015E493A3AD82AE838A828B83C2
:1004F300F0A3AA82AB838D828E83D8E9D9E7758274
:10050300BE758385740212087575823275831874FB
:1005130000120875C0D02518C582C0E0E51934FF64
:10052300C583C0E0E518C3958224F310AF08858323
:10053300198582188008858319858218D2AFC8F07F
:10054300A3E9F0A3EAF0A3EBF0A37908E709F0A38A
:10055300D8FAECF0A3EDF0A3EEF0A3EFF0A3D0E014
:10056300F0A3D0E0F0A3D0E0F0A3E520F0A3E5F002
:10057300F0A32212010002020000205104A8160970
:10058300000102030109024300020100801909046A
:1005930000000102020100052400100104240202EC
:1005A300052406000105240100010705820340001C
:1005B3004009040100020A0000000705840240000C
:1005C300000705040240000091050000B405000087
:1005D300851983851882E0C0E0A3E0F9A3E0FAA3BC
:1005E300E0FBA37808E0F608A3DFFAE0FCA3E0FD54
:1005F300A3E0FEA3E0FFA3E0C0E0A3E0C0E0A3E02C
:10060300F5D0A3E0F520A3E0A3F5F010AF088583B0
:10061300198582188008858319858218D2AFD08204
:08062300D083D0E0F8D0E032F2
:10062C0075F0108E218F2285822685832585188270
:10063C00851983E0CEA3E0CF852682852583EBC97F
:10064C00EAC8EDCBECCAC3E833C8E933C9EA33CA0C
:10065C00EB33CBC3EA9EF524EB9FF523B35004ABED
:10066C0023AA24EC33CCED33CDD5F0DAAE21AF2276
:10067C0022851983851882E0A3FEE0A3F520780873
:10068C00E0A3F608DFFAE0A3FFE0A3C0E0E0A3C01C
:10069C00E0E0A3C0E0E0A3C0E0E0A3C0E010AF083E
:1006AC008582188583198008858218858319D2AFB5
:1006BC00D083D08202087BC0E074F2120517A2AF7F
:1006CC00E433FED2AFE58AA2E25007900500E0D2F7
:1006DC00E0F0E58AA2E35007900500E0D2E1F07566
:1006EC008A00C2EB7A107B009004FCE0F91214969D
:1006FC00EEA2E092AF7F010205D37404800874036C
:10070C00800474028000CCC0E0EDC0E0E518C39C0E
:10071C00CCAD1950011D10AF068C188D1980068CAC
:10072C00188D19D2AF1207F7D0E0FDD0E0FC22D023
:10073C0083D082CCC0E0E493A360061208561470F8
:10074C00FAE493A360061209471470FAD0E0FCE4B3
:10075C0093A3C0E0E493C0E022C0E0C0D0E8C0E0C6
:10076C00E9C0E0A9A8D2AFC2C7E9A2E7E433F8E92F
:10077C00A2E792AFD0E0F9D0E0F8D0D0D0E032C010
:10078C0008C3E096F50808A3E096420808A3E09693
:10079C00420808A3E0964208A2D265D033E508705F
:1007AC0001D3D00822CAC0E0E493A3C582CCC58291
:1007BC00C583CDC583F0A3C582CCC582C583CDC509
:1007CC0083DAE5DBE3D0E0CA22CAC0E0E493A3C538
:1007DC0082CCC582C583CDC583F0A3C582CCC5822E
:1007EC00C583CDC583DAE5D0E0CA22CAC0E0E0A358
:1007FC00C582CCC582C583CDC583F0A3C582CCC5CB
:10080C0082C583CDC583DAE6D0E0CA227009080818
:10081C0008226016181818C6C333C608C633C60893
:10082C00C633C608C633C6D5E0EA22C008C3E09674
:10083C00F50808A3E096420808A3E096420808A32E
:10084C00E09645087001D3D00822C0E0E493A3D30E
:10085C009C5010E493A3C39C400AD0E0D0E0D0E0BD
:10086C00020758A3A3A3D0E022C09FF59FE473D046
:10087C009F22D083D082C09FE493C0E0740193C0C8
:10088C00E0740293F59F2200C0D0251810AF08F534
:10089C0018500C05198008F51850020519D2AFD064
:1008AC00D0227404800A74038006740280027401DE
:1008BC00C0E0F4041208C9D0E0120B29222518F567
:1008CC008210AF08F518400C15198008F518400275
:1008DC001519D2AF85198322BB0102E722C082C051
:1008EC008389828A83BB0003E08002E493D083D0A7
:1008FC0082226016080808C6C313C618C613C61889
:10090C00C613C618C613C6D5E0EA222518F8E43576
:10091C0019F9222518FAE43519FB222518FCE435BF
:10092C0019FD22C3E0C696F608A3E0C696F608A306
:10093C00E0C696F608A3E0C696F622C0E0E493A3C0
:10094C006C7009D0E0D0E0D0E0020758A3A3D0E04F
:10095C0022BB000EC082C0838A838982F0D083D0F0
:10096C008222BB0101F722251810AF08F518400CA4
:10097C0015198008F51840021519D2AF22E76670D8
:10098C00100809E766700A0809E76670040809E7A9
:10099C006622E066701008A3E066700A08A3E066A1
:1009AC00700408A3E06622C3E09608A3E09608A3AF
:1009BC00E09608A3E096A2D265D03322C3E096F06D
:1009CC0008A3E096F008A3E096F008A3E096F022C6
:1009DC00C3E697F60809E697F60809E697F60809BC
:1009EC00E697F622E493F608740193F608740293E2
:1009FC00F608740393F622E647F60809E647F6086C
:100A0C0009E647F60809E647F622E627F60809E65E
:100A1C0037F60809E637F60809E637F622E026F637
:100A2C0008A3E036F608A3E036F608A3E036F62273
:100A3C00E026F008A3E036F008A3E036F008A3E0C7
:100A4C0036F022E657F60809E657F60809E657F697
:100A5C000809E657F622E056F608A3E056F608A376
:100A6C00E056F608A3E056F622E056F008A3E0564E
:100A7C00F008A3E056F008A3E056F02270042260C0
:100A8C000D18C6C333C608C633C6D5E0F41822E425
:100A9C00C396F608E496F608E496F608E496F62271
:100AAC00600D08C6A2E713C618C613C6D5E0F3221C
:100ABC00C3E09608A3E09608A3E09608A3E096226C
:100ACC00C3E7960809E7960809E7960809E796220E
:100ADC00C6F4C608C6F4C608C6F4C608C6F4C622D0
:100AEC0075D00075813F7518D1751904000204B4D6
:100AFC00E6F008A3E6F008A3E6F008A3E6F022600F
:100B0C000C08C6C313C618C613C6D5E0F422E0F60B
:100B1C0008A3E0F608A3E0F608A3E0F622CAC0E0BA
:100B2C00E6F0A308DAFAD0E0FA22E8F0A3E9F0A3A1
:100B3C00EAF0A3EBF022E0F8A3E0F9A3E0FAA3E0DB
:100B4C00FB22E0FAA3E0FBA3E0FCA3E0FD22E5C757
:100B5C0054F84401F5C77901222518F582E43519BA
:100B6C00F58322C2AF75D69F0200002212087EC701
:100B7C008C0212087E8E8D0212087E988D0212084D
:100B8C007EA58D0212087E0A800212087E2D80023C
:100B9C0012087E78800212087E96800212087EB1BE
:100BAC00800212087E17810212087E23810212082D
:100BBC007E80810212087EAC810212087EBB81020B
:100BCC0012087EDF810212087EA5820212087EB214
:100BDC00820212087EC3820212087E8E9F021208C5
:100BEC007EA69F0212087ED29F0212087EFFE701AA
:100BFC0012087E65E90112087E73E90112087E87EE
:100C0C00E90112087EA2E90112087EBFE90112086F
:100C1C007ED4E90112087EE7E90112087E69EA0137
:100C2C0012087ECFEA0112087E66EB0112087E3FA5
:100C3C00EC0112087E4FEC0112087E5EEC011208EA
:100C4C007EFF9B0212087E239C0212087E4B9C02A4
:100C5C0012087E739C0212087E2C920212087E539C
:100C6C00920212087E71920212087EE7920212081A
:100C7C007EF1820212087E0A830212087E21830210
:100C8C0012087E2A830212087E48830212087E52C2
:100C9C00830212087E5C830212087E6F83021208A4
:100CAC007EF5830212087E6A840212087E98840202
:100CBC0012087EE9840212087E3A850212087E55DB
:100CCC00850212087E5F850212087E70850212086A
:100CDC007EB3850212087EAC9E0212087EC197017B
:100CEC0012087EED970112087E10980112087E23DF
:100CFC00980112087E3E980112087EA698011208EF
:100D0C007ED4980112087EDE9C0112087E499F0158
:100D1C0012087ECBA00112087EFDA00112087E5C99
:100D2C00A10112087EAFA20112087ED7A2011208FF
:100D3C007EECA20112087EFCA20112087E3BA301EC
:100D4C0012087E7DA30112087E8DA30112087EB9C4
:100D5C00970212087EC9970212087EED97021208BC
:100D6C007E16980212087E40980212087E64980241
:100D7C0012087E7B980212087EA9980212087ECC7B
:100D8C00980212087E51D10112087E6FD10112080F
:100D9C007E7DD10112087EDAD30112087E17D401B0
:100DAC0012087E1BA00212087E6EF40112087E7ED1
:100DBC00F40112087ED1F50112087E03F601120827
:100DCC007E33F60112087E5BF60112087E6DF60189
:100DDC0012087EA9F60112087E0DF70112087E5248
:100DEC00F70112087E97F70112087EC4F70112086A
:100DFC007EFCF70112087E32860212087EB2860251
:100E0C0012087EE0870212087E0A880212087E53BE
:100E1C00880212087E82880212087EA61D00120823
:100E2C007ED41D0012087E6B1E0012087E8D1E00E3
:100E3C0012087ED01E0012087E681F0012087E1C4D
:100E4C00200012087E52200012087EA220001208F8
:100E5C007E62210012087ED9210012087EFD21003D
:100E6C0012087E57220012087EC2220012087EED64
:100E7C00220012087E9D230012087EA9230012086E
:100E8C007E90240012087EEE240012087E182500A5
:100E9C0012087E47250012087E72250012087E7B00
:100EAC00250012087EA0250012087EE825001208F5
:100EBC007E59260012087EB9260012087E7C270077
:100ECC0012087E00280012087E58280012087EF0B6
:100EDC00290012087E542A0012087EC42A00120827
:100EEC007EB62B0012087EE92C0012087E602D00C5
:100EFC0012087EB82D0012087E692E0012087E1C86
:100F0C002F0012087E09300012087E2930001208CA
:100F1C007E34310012087EF0320012087E5D330000
:100F2C0012087E20340012087E16350012087E90BE
:100F3C00350012087ECB350012087E2436001208CC
:100F4C007E5F360012087EA8360012087E38370005
:100F5C0012087ECF370012087EA4380012087E6F6C
:100F6C00390012087EFA390012087E203A00120865
:100F7C007E4D3A0012087E7E3A0012087E163B0027
:100F8C0012087EF63B0012087E063C0012087E3DDD
:100F9C003C0012087E4A3C0012087E573C001208A6
:100FAC007E753C0012087E7E3C0012087EEC3C00F4
:100FBC0012087E803D0012087ECB3D0012087EE6B2
:100FCC003D0012087E0D3E0012087E2A3E001208DB
:100FDC007E363E0012087E6C400012087E85400072
:100FEC0012087E0B410012087E2C410012087E3B39
:100FFC00410012087ED4410012087E5543001208AD
:10100C007EFA440012087E91450012087E9B450032
:10101C0012087E09460012087E1A460012087EAAA3
:10102C00460012087E0F470012087E124700120875
:10103C007ED8470012087E32480012087E5B4800BA
:10104C0012087EC0480012087EDE480012087E3C62
:10105C00490012087E054A0012087E604A001208F8
:10106C007EAE4A0012087E544B0012087E7D4B0067
:10107C0012087EBE4B0012087ECC4B0012087E2A52
:10108C004C0012087EA24C0012087EE34C001208A1
:10109C007E334D0012087E5E4D0012087E784D00A6
:1010AC0012087E924D0012087E524E0012087E5C91
:1010BC004E0012087E894E0012087E994E001208CE
:1010CC007EA24E0012087E014F0012087E154F00C2
:1010DC0012087E22500012087E35500012087E4AFB
:1010EC00500012087EDD500012087E50510012088C
:1010FC007E4B520012087E56520012087E66540037
:10110C0012087E82540012087ECE540012087E3DD6
:10111C00550012087EDCE10112087E84550012088D
:10112C007EE4550012087E83560012087EC55600D8
:10113C0012087E25570012087E2A5B0012087EF9E1
:10114C005B0012087EFE5C0012087E945D001208A3
:10115C007ED95F0012087EEC5F0012087EEF5F0004
:10116C0012087EFB5F0012087E0F600012087E17CB
:10117C00600012087E56600012087E5A6100120848
:10118C007ECF610012087EC48C0212087EDC6200E5
:10119C0012087E96630012087EB8630012087EC5A2
:1011AC00630012087E62640012087E6E64001208EE
:1011BC007EC6640012087EF9640012087E62650027
:1011CC0012087EA8660012087E2B680012087EB6F4
:1011DC00680012087EB8690012087E826A00120844
:1011EC007EB36A0012087ED96A0012087EE26A0099
:1011FC0012087EAF6B0012087E676C0012087EFC32
:10120C006C0012087E196E0012087EA37000120882
:10121C007EF0700012087E2E720012087E2475007B
:10122C0012087EF2760012087E9A780012087E1858
:10123C007A0012087EAA7A0012087ED97A00120867
:10124C007E7C7B0012087E207C0012087E947C0041
:10125C0012087E377D0012087EAC7D0012087EF4E9
:10126C007D0012087E337E0012087E707E0012080C
:10127C007EA57E0012087EF47E0012087E697F0037
:10128C0012087E9A7F0012087EBDA30112087EEE22
:10129C00A30112087ED0A70112087E3DA9011208F5
:1012AC007E43AA0112087E0EAB0112087E2D9A0213
:1012BC0012087E489A0212087EA99A0212087EF53C
:1012CC00800112087EE5810112087EF88101120866
:1012DC007E19820112087E6D830112087EBD830186
:1012EC0012087EBA840112087E46850112087E1906
:1012FC00860112087E81860112087EDD86011208A5
:10130C007E82870112087EB6870112087ED987017A
:10131C0012087EDC880112087E07890112087E1FE4
:10132C00890112087E64890112087ED9890112088C
:10133C007E978A0112087E2F8B0112087E5D8B012D
:10134C0012087E838B0112087E118C0112087E67B5
:10135C008C0112087E6C8D0112087EC98D01120859
:10136C007E078E0112087E738E0112087E5E90013C
:10137C0012087E3E910112087E97920112087E0897
:10138C00930112087E6E930112087EFC93011208E1
:10139C007E48940112087E5C940112087E829501AD
:1013AC0012087E62960112087E7F960112087EDA80
:1013BC00960112087E14970112087E4A97011208B2
:1013CC007E62970112087EFDC30112087E15C701CB
:1013DC0012087E95C80112087E62C90112087EB3FC
:1013EC00C90112087EE0C90112087EFFC90112086A
:1013FC007E1ACA0112087EFD8F0212087E07900227
:10140C0012087E28900212087E9CD70112087E6E6C
:10141C00DA0112087EEADA0112087E7EDB0112087C
:10142C007EDDDB0112087E98DC0112087E0DA10224
:10143C0012087EC2CA0112087E0BCB0112087E6113
:10144C00CB0112087E80CB0112087E99CB011208C9
:10145C007E39CC0112087E8ACC0112087EB3CC01F5
:10146C0012087EC8CC0112087E38CD0112087EC647
:10147C00CD0112087EFDCD0112087E5ECE01120850
:10148C007E86CE0112087EFBCE0112087E57CF015C
:10149C0012087E9ACF0112087ED7CF0112087EE97E
:1014AC00CF0112087EFBCF0112087E1AD001120860
:1014BC007E23D00112087EE8D00112087E28D101CB
:1014CC0012087EB6E20112087EFCE30112087E25AA
:1014DC00E40112087E36E40112087E55E60112087A
:1014EC007E75E60112087E99A00212087EAF8D026D
:1014FC0012087EE68D0212087E358E0212087E8E50
:10150C008F0212087EE27F0012087E86F00112081C
:10151C007E9BF00112087E4EF10112087E8EF101C5
:10152C0012087EA7F10112087EDAF10112087E275B
:10153C00F20112087E62F20112087E61F4011208B7
:10154C007EFBFE0112087E5AFF0112087E98FF01F5
:10155C0012087ED9FF0112087EB69D0212087EE6A3
:10156C009D0212087E1B9E0212087E1D9E0212080E
:10157C007E1F9E0212087E309E0212087E329E0250
:10158C0012087E359E0212087E62940212087ECFEB
:10159C00940212087EF1940212087E299502120818
:1015AC007E5F950212087EE3FB0112087E25FC018A
:1015BC0012087E48FC0112087E80FE0112087E9AF9
:1015CC00FE0112087EC5FE0112087E439F0212081E
:1015DC007EF1BC0112087ECFBD0112087EBEBE0199
:1015EC0012087ECFBE0112087EE0BE0112087E2AD0
:1015FC00BF0112087EC6C00112087E26C201120865
:10160C007E56C20112087E21C30112087E81C301DD
:10161C0012087E04990212087E94990212087EA088
:10162C00B50112087EE2B50112087E08B601120857
:10163C007E2FB60112087E2CB70112087E71B901FB
:10164C0012087E89B90112087EA1B90112087EB96F
:10165C00B90112087ED1B90112087E74BA011208C0
:10166C007EB4BA0112087EBEBA0112087ED3BA014A
:10167C0012087EDABB0112087EF0BB0112087EFD57
:10168C00BB0112087E06BC0112087E0FBC011208B9
:10169C007E18BC0112087E22BC0112087E30BC01EF
:1016AC0012087E8FEC0112087E7FF00112087E84F6
:1016BC00F00112087EF79E0212087ED59F021208D6
:1016CC007ED0A00212087EF9E00112087EE0E00153
:1016DC0012087ECCE00112087E90E00112087E50C8
:1016EC00E00112087EBADD0112087E8EDD011208BF
:1016FC007EF78A0212087EEE8A0212087ED98A02CE
:10170C0012087EC58A0212087E9F8A0212087E7514
:10171C008A0212087EAC890212087E6189021208C4
:10172C007E28890212087E87880212087E61A00238
:10173C0012087E7EFB0112087EACF90112087ED7DE
:10174C00F80112087E5EF80112087E50F8011208AA
:10175C007E919E0212087E3B9E0212087E389E02EB
:10176C0012087E588C0212087E329D0212087E25C9
:10177C008C0212087EEF8B0212087EA28B021208DA
:10178C007E648B0212087E4B8B0212087E289D020F
:10179C0012087EC09C0212087EA89C0212087E9839
:1017AC009C0212087EFCA00212087E278B021208F3
:1017BC007EEDB40112087E63B40112087EC5B3013C
:1017CC0012087EE4B10112087EA2E20112087E1E0C
:1017DC00B00112087E63620012087EEEAC011208A2
:1017EC007EF87F0012087E7F970212087E6F9702A8
:1017FC0012087E65970212087E01970212087EBFBE
:10180C00960212087E9E960212087E6696021208B6
:10181C007E8EE20112087E5A9B0212087E499B02C0
:10182C0012087E6F550000000080FBE4730000007E
:10183C000600FFFFFFFFFFFFFFFFFFFFFFFFFFFFA4
:10184C00FFFFFF000000000000000003FFFF00008E
:10185C00000000000000000000000000000000007C
:10186C00000000000000000000000000000000006C
:10187C00000000000000000000000000000000005C
:10188C00000000000000000000000000000000004C
:10189C00000000000000000000000000000000003C
:1018AC00000000000000000000000000000000002C
:1018BC00000000000000000000000000000000001C
:1018CC000000000000000000000000000104010402
:1018DC000000FFFF000000000000000000000000FE
:1018EC0000000000000000FFFF00000000000000EE
:1018FC00000000000000000000000000FFFF0000DE
:10190C0000000000000000000000000000000000CB
:10191C0000FFFF00000000000000000000000000BD
:10192C00000000000000FFFF0000000000000000AD
:10193C000000000000000000000000FFFF0000009D
:10194C00000000000000000000000000000000008B
:10195C00FFFF00000000000000000000000000007D
:10196C000000000000FFFF0000000000000000006D
:10197C0000000000000000000104050100013636E3
:10198C00010100010201000103010001040106062E
:10199C0005020000070100340801000F09040101D1
:1019AC000D0100FF0E08000017020000190100FFD6
:1019BC001A0100011B0100FE1C0100081D020000A1
:1019CC001F01000120010001210200002301000F72
:1019DC00240200002601000127010008280200FF54
:1019EC002A0100072B0102402C0100002D010001EF
:1019FC002E0100012F0100FF30010B1D31080000EA
:101A0C003A0100083B01000F3C0100013D0100FFC1
:101A1C003E04000042040000460400004A0400009A
:101A2C004E04000052040000560400005A0400004A
:101A3C0001037103010301030103010301032203E9
:101A4C00020301031003000300030003000300035F
:101A5C0000030003420300032403060300030003F6
:101A6C0004031203250323032503230304030403A4
:101A7C0000030003000344030003000323030003DB
:101A8C0065032100350381030003050300030003F4
:101A9C0000030003250323030302710230016002DB
:101AAC0011027002010202020202800210026102A3
:101ABC003A004100630273027202620243020002A6
:101ACC00130238000002000204021202000200029B
:101ADC000002000204020402370037003C024402F8
:101AEC000002390000020002650200023502810288
:101AFC00000205028202830200026602000200025A
:101B0C00030471040204600411047004020402044E
:101B1C00010402041004610400041404630473043B
:101B2C007204620443040004130406040004000459
:101B3C0004041204000400040004000451046400B2
:101B4C000004000400044404000400040004000425
:101B5C006504000435048104640005040004830456
:101B6C00000466040004000401017101010101017B
:101B7C00110101013101010101018001100161011B
:101B8C003B00140063017301720162014301000107
:101B9C00130106013D013500040112010001000191
:101BAC000001000104010401330133013C01440133
:101BBC003201360000010001650100013500810190
:101BCC000001050182018301000166010001000191
:101BDC00030071003001600011007000310220031D
:101BEC0050048000100061000000140063007300BA
:101BFC0072006200430000001300060000000000A9
:101C0C0004001200000000000000000004000400AA
:101C1C00370037003C0244000000000000000000C8
:101C2C006500000035008100000005000000830005
:101C3C0000006600000000003600010006000000F5
:101C4C000F0000000000000000000000000003FF77
:101C5C00FF00000403FFFF0000FFFF0FF40100056D
:101C6C00C4040320000100000B0000000000000071
:101C7C000003010F00000000000000000000000045
:101C8C000000000000000000000000000000000048
:101C9C000000000000003000000060000000C000E8
:101CAC000000800100000003000000060000000C92
:101CBC00000000180000003000000060000000C0B0
:101CCC00000000800100000003000000060000007E
:101CDC000C0000000C0000010002010100080201D0
:101CEC0000010000000003010007040100030508C7
:101CFC0000000D0101FF0E080000160800001F0275
:101D0C00000007ECFDFDFDECDCDCCCBCACAC9C9C21
:101D1C008C7C7C6C6C5C5C5C4C4C3C3C2C2C1C1CA7
:101D2C0003EAF5E5D5D5C5B5A59595858575756594
:101D3C00655555454535352525151505303016188D
:101D4C001920231A1C1E3032303017181921301B61
:101D5C001D1F3033003C40423A3F3F392F4730661D
:101D6C000C0E020B040B0A0708000F00034D4C4627
:101D7C0051181A25050200011916181616182303F6
:101D8C000002040201010101090200040810000410
:101D9C0008100001050900BE040AC082C083900728
:101DAC00DE742AF0A3740EF09007E07430F0A37484
:101DBC000EF09007E2743CF0A3740EF09007E474FC
:101DCC0036F0A3740E02412474F712044874FD1209
:101DDC000973EAFEEBFF900555E0640F60071233C0
:101DEC0054A2E55005121E65806B125D60D2E1F0C5
:101DFC0090085BE0600F8E828F83A3A312604B125E
:101E0C001136E960231233544403F0900742E0701A
:101E1C004512284A120B65E4F07402120B6574FF2C
:101E2C001249361211AE802E121E65125F9E12568A
:101E3C006E64027021E82405F85001091274FFF950
:101E4C00EAF874FF68700374FF69700A125D60D25F
:101E5C00E5F01235C5F0023730123358D2E022C00B
:101E6C0082C0831210E2E96004792080119005553C
:101E7C00E0640F70047901800590073FE0F902419E
:101E8C0025C082C083EA240E121EBE54047017EAC9
:101E9C00FCEBFD7ACB7B07121484A9A8C2AF900788
:101EAC00D2121EC6800612431F121837024125EAB1
:101EBC00240DF582E43BF583E022E00412357EA28A
:101ECC00E792AF2274F012044890073FE0F460747C
:101EDC00900741E0602E90073FE0640270261217D5
:101EEC007E8A088B098C0A8D0B90073778081209AB
:101EFC002F75F014900551E084F50CE4F50DF50EFA
:101F0C00F50F802F12177E8A0C8B0D8C0E8D0F9077
:101F1C00073B7808120B1A7808790C1209DC900729
:101F2C00CF1229D41209DC9005701227F0F50CA3FE
:101F3C00E0F50D7808790C1209DC9080DF78081236
:101F4C00078B40047900801190808F780812078BE2
:101F5C004005E508F9800279FF022CE474F01204C4
:101F6C0048E9FEEAFF7A007B00ECF9120FBCE9901D
:101F7C000737F0A3122001740F6F70051220158023
:101F8C0049900555E06F900740701A12200812080E
:101F9C0018908093780C120B1A7808790C1203594C
:101FAC009080978018122008120818908093780C53
:101FBC00120B1A7808790C1203599080BF7808120A
:101FCC000A2990073B7808120AFCEEA3F074016E04
:101FDC0070209005567808120B1A90073778081263
:101FEC000A3C9005567808120B1A90073B78081299
:101FFC000A3C022CE4E4F0A3F0A3F0221227E595AE
:10200C00E0F50AF50BEF780822A3122001A3F022C9
:10201C00C082C083900746745AF0A3740EF0A37468
:10202C0078F0A3740EF09007DC7484F0A3740EF0B7
:10203C009008537446F0A37407F0120E24900838DD
:10204C00E0440802412474F0120448900556120B27
:10205C0042E8494A4B600A900556780C120B1A80DC
:10206C0015750C30750D00750E00750F009005552B
:10207C00E0780C1208189080B3780C120A29908022
:10208C00F3122474780C79081209DC900765780C2B
:10209C00120AFC022CE474EC120448EAFCEBFD8CF2
:1020AC00828D83A3A3A3A3A3A3A3A3A3A3E0FE1244
:1020BC00276312604BEA2AFAEB33FB8C828D83A3E5
:1020CC00A37808120B1A90809F780C120B1A7808C0
:1020DC00790C1203D9740F6E6075900742E064029C
:1020EC00706DEC240C12501A705F750C30750D006D
:1020FC00750E00750F00EC240B12501A780C120898
:10210C00188A108B11F512F513780C7910120A1627
:10211C00780C7908120ACC4022750C30750D0075BC
:10212C000E00750F00EE780C120818780C7910124E
:10213C0009DC7808790C120ACC500479FD801290D5
:10214C0005567808120AFC8006900556122016795E
:10215C00007F0C02067D74F412044874F7120973A4
:10216C00EAFEEBFF120F62E9F5087051EEFAEFFB95
:10217C00120E54E9F5087045EE240E125D63603DB5
:10218C00123883120FB6EA4B60337408120B6512C7
:10219C00388D12070E7508FF7509FF78081208B6FE
:1021AC008E828F83A3A3A3A3A3A3A3A3E0F9740498
:1021BC00120927120F087404120893800D8E828F57
:1021CC0083A3E508124AA8120E78022DAEC082C075
:1021DC008390073F74FFF0120E9C900570E0F8900E
:1021EC000555E0686003120D7079081210D0024199
:1021FC0025C082C0839007691250D7602B1250D42F
:10220C00701F9007691262489007D4124EF790071E
:10221C0069E4F0A3F07902120DB87902120D648012
:10222C00077A697B0712110C90085BE0601A900525
:10223C0055E0640F601212238F1207067A537B0746
:10224C00121262740412089302412574F4120448A9
:10225C0090085BE0605D9007507466F0A3740EF01C
:10226C009007657808120B1A9080C37808120A2917
:10227C0078081208AE7A4A7B0712126274041208AC
:10228C00931210E2E9701F123A6E120F1A8A088B21
:10229C0009A808A909900769124EF7E849601412B9
:1022AC004343D2E6800C90055AE004F0900769E4B1
:1022BC00F0A3F0022DB374F7120448E9FE12604843
:1022CC00120F6879401210D0EEF9120E6C120E4EED
:1022DC0090085CE06008900555E0F9121286024BFC
:1022EC00B974F4120448EAFEEBFF900555E0F508CA
:1022FC008E828F83A3E0707090085BE06018740F7F
:10230C0065086012A9A8C2AF9007597472F0A37443
:10231C000E121EC8805E122383640F9007B26042B7
:10232C0012604B120F68120E4E740F6508701F125C
:10233C002383F99007657808120B1A9080EB7808C4
:10234C00120A29AA08AB09AC0AAD0B12127A122395
:10235C008F1207067A537B071212627404120893C9
:10236C00800612604B120F688E828F83742C124A77
:10237C00A81210E8022DB39007B2125FBC24081209
:10238C00404B22900759746CF0A3740EF0900765C3
:10239C0022C082C0837902120D6A02412574F412A4
:1023AC000448E99005556003022452E0640F700361
:1023BC00022457900740740F1244E0FC7D009005F6
:1023CC0070E0FA7901120E42900550E0603A9005E7
:1023DC006DE06034900762747EF0A3740EF090058B
:1023EC00511224747583077582377808120A299064
:1023FC0080A37808120A2978081208AE7A5C7B0749
:10240C001212627404120893900570E0640F700548
:10241C00120D70801C9007347460F0A3740EF09051
:10242C00073B1207067A2E7B0712126274041208FD
:10243C00939007D412430F122489A2E45003120E76
:10244C008A120E968018E0640F701390056DE06090
:10245C00057902120D5E120E9079081210D07AD402
:10246C007B0712110C022DB312247822E0F508E43C
:10247C00F509F50AF50B22850882850983A3A312B9
:10248C00432DE02274F5120448750800750900A26A
:10249C00AFE433F50AC2AF9007CB80078E088F09E3
:1024AC001235061237BF601C125D60A2E550ED7844
:1024BC00081208B6EEFCEFFD7ACB7B0712148A7477
:1024CC0002120893E50AA2E092AFEE4F60111233AC
:1024DC0054D2E4F0EEFCEFFD7ACB7B0712148402AD
:1024EC0069A7C082C083A2AFE433FAC2AF9007CB16
:1024FC00800D1225D3A2E5500312254012256B1234
:10250C0050D770EEEAA2E092AF024125C082C083A0
:10251C00A2AFE433FAC2AF9007CB8011125F7DE01B
:10252C00A2E75006C2E7F012254012256B1250D7D5
:10253C0070EA80D01225DFD2E4F022C082C083A2E0
:10254C00AFE433FAC2AF9007CB800D1225DBA2E7C4
:10255C005003C2E4F012256B1250D770EE80A5E840
:10256C0024FB1276D722C082C08379100223A3C029
:10257C0082C08390056DE060057902120D647920AC
:10258C00120D6A7A7C7B071212747A737B07121213
:10259C007402412574F7120448A2AFE433FAC2AFB7
:1025AC009007CB80101225DBA2E15006D2E0F0128E
:1025BC0025D312256B1250D770EBEAA2E092AF79BB
:1025CC00101210D0024BB9125F81E0C2E1F022125E
:1025DC0025DF22E812430339F583E022C082C08351
:1025EC0074EF12097390085BE4F0900742F09007C7
:1025FC003F04F0900744E4F0120EAE79081210D0AC
:10260C00900743E06004E4F08040851882851983CC
:10261C007409F07401120B6574E0F090056A126293
:10262C00487402120B65124EF790057DE0C0E07401
:10263C0004120B65D0E0F07405120B65E4F0740E17
:10264C00120B65E41249361216AC023CE474F41217
:10265C000448900744E070411250D4700B9007442A
:10266C007401F07920120D5E750830750900750A39
:10267C0000750B00900555E078081208189080A79B
:10268C007808120A2978081208AE7A7C7B07121295
:10269C00687404120893022DB390078EE004F06462
:1026AC000470C57920120D6A120EB480E974F01210
:1026BC000448900555E0FE900744E4F090078EE046
:1026CC0004F064047009120EA8120EB4022760798B
:1026DC0020120D6A900588E0640F60199005551260
:1026EC0029CB5011900588E0FE900745E0F9900544
:1026FC0055F012128C750C30750D00750E00750F9F
:10270C0000900555E0780C120818EE12276312722F
:10271C000690078EE02401F50AE43400F50BE50879
:10272C00850AF0A4C508A8F0850BF0A428F8850A42
:10273C00F0E509A428F509E4F50AF50B780C7908FD
:10274C001209DC780C1208AE7A737B0712126274D1
:10275C0004120893022CE41227672225E012276D3D
:10276C0022F8E433F9742928F582741139F583229F
:10277C0074F41204489007441227F67005120EA840
:10278C0080547920120D5E90078274C0F0A3740EF1
:10279C00F09005551227F0F8A3E0F990078E122758
:1027AC00E5E88508F0A4C8AAF08509F0A42AFA8502
:1027BC0008F0E9A42AF9E828F8E933F98808890926
:1027CC00E4F50AF50B78081208AE7A7C7B07121236
:1027DC00627404120893022DB3E02401F508E4346A
:1027EC0000F50922E0122767E0227401F0900555EC
:1027FC00E0640F22C082C08374FD12097390073FFE
:10280C0074FFF0900742E06401701FE4F09007D26F
:10281C00E0602612284A120B65E4F07402120B6574
:10282C0074FF1249361211AE800F900570E0F890CB
:10283C000555E0686003120D707403023CE69005C8
:10284C007DE0851882851983F074012274F01204DE
:10285C0048EAFEEBFF900744E070030229C8EE241F
:10286C002B1229E17003A3E06960030229C8123B13
:10287C00E6121130E970030229C8900744E4F09085
:10288C00056DE060057902120D64900832E0600578
:10289C007901120D648E828F83A3A3A3A3A3A3A398
:1028AC00E0A2E4500A7910120D6479801210D079EC
:1028BC0020120D6A7A7C7B071212748E828F83121F
:1028CC0062461274FFF8E4C8F9EA28E439FB540FA5
:1028DC00900740F08A088B09740C7808120B0BE5F2
:1028EC00085401A3F0EA540F900745F0EAC4540FC2
:1028FC00900570F0900588E0640F60171229CB509A
:10290C00128E828F83A3A31274C8A3E07005900566
:10291C00888003900745E0900555F090078EE412EF
:10292C0027F870030229BAE0F9EEFAEFFB121280D5
:10293C00900742E0640270367A737B07121274902F
:10294C000555E0F9750830750A00750B007808120A
:10295C000818E92912276D1229D41209DC780812FB
:10296C0008AE7A737B0712126274041208938E827B
:10297C008F83A3A3A3A3E0FC7D00900570E0FA79FC
:10298C0002120E427A2E7B0712127490073474CC0A
:10299C00F0A3740EF090073B1207067A2E7B0712F9
:1029AC001262740412089379101210D0800E9007E2
:1029BC0042E064027006120EA8120EB4022CE4E07F
:1029CC00F8900745E0C398221271F8E4F50EF50F64
:1029DC007808790C22F582E43FF58312624C90055D
:1029EC006AE06822C082C08390076B74EAF0A3741B
:1029FC000EF0A374E4F0A3740EF0A374F0F0A374BF
:102A0C000EF0A374F6F0A3740EF090077974C6F070
:102A1C00A3740EF090078274C0F0A3740EF09007AC
:102A2C008B74A2F0A3740EF09007DA74D2F0A37436
:102A3C000EF0900859746BF0A37407F0120E2490EA
:102A4C000838E0441002412474F41204488909EA5D
:102A5C00FEEBFF74075509FAE9C4540F5407F50847
:102A6C008007EE2402FE50010F74FF2AFA04602541
:102A7C008E828F83E0FCA3E0F9ECF87583057582F8
:102A8C006EE0687003A3E06970D879028027EE24A9
:102A9C0008FE50010F85080B74FF250BF508046028
:102AAC0012EEFCEFFD7A7E7B05121556E960DF799C
:102ABC000380027900022DB374F612044874F712E5
:102ACC000973EAF8EBF9900832E06003022B5C9092
:102ADC00054FE0607B88828983A3A3A3A3A3A3E013
:102AEC00125F90E0F9120EDEE9FE6064900832E0AD
:102AFC00D2E21249361211187901120D647A277B31
:102B0C00087977120D9A7A2F7B087975120D9A7ABB
:102B1C00307B087976120D9A7A317B087978120D10
:102B2C009A75082775090878081208B67508017592
:102B3C00090078081208B690056A12070E7406127E
:102B4C000927EEFA79051211427406120893805186
:102B5C00900555E0640F6049E0F8900570E06860FE
:102B6C004090056DE0703A1210DCE96034A2AFE4DD
:102B7C0033FEC2AF900742E06402702090073FE042
:102B8C00F460191250D470149007CB1250D7700CFB
:102B9C007A2E7B071212747900120ECCEEA2E09200
:102BAC00AF8002A9087409024A5874F0120448EA6A
:102BBC00FEEBFF7509008E828F83122CC940030235
:102BCC002CC7900555E0640F7003022CC790056A62
:102BDC00E0F47003A3E0F47003022CC7900564E0EA
:102BEC00F47003A3E0F47003022CC78E828F83A3CE
:102BFC00A3A3A3E0640170397508027A7C7B0712E9
:102C0C0012747A737B071212747A2E7B0712127469
:102C1C00A2AFE433F50AC2AFE508900742F0900783
:102C2C003BE4122CD21250D49007447025740180CE
:102C3C00228E828F83A3A3A3A3E070057508018065
:102C4C00BAF47077900742E070717508017509014C
:102C5C0080A9E4F0E509900743F0A2E090078E50BC
:102C6C000474038001E4F0E50AA2E092AF122F068F
:102C7C00FB79E1120C74900744E064017005792033
:102C8C00120D5E90078274BAF0A3740EF0750C30BE
:102C9C00750D00750E00750F00900555E0780C123F
:102CAC0008189080A7780C120A29780C1208AE7AB2
:102CBC007C7B071212687404120893801BA3A3E098
:102CCC0024F5C3941322122002A3F0A374FFF02264
:102CDC0012126874041208937F0802067D74F012B5
:102CEC000448122DA312030088088909E4F50AF59B
:102CFC000B900555E0640F604812177E8A0C8B0D03
:102D0C008C0E8D0F90073B780C7908120A16780CF4
:102D1C00120837502C750C30750D00750E00750FA0
:102D2C0000900555E0780C1208187808790C120AF6
:102D3C00169080A77808120A2990073B7808120988
:102D4C002F7A157B0812127478081208AE7A157B4C
:102D5C0008022CDC74F4120448900555E0640F60F2
:102D6C002F900570E0602E7A857B07121274122D5D
:102D7C00A312030088088909E4F50AF50B780812F8
:102D8C0008AE7A857B0712126874041208938005CA
:102D9C007910120D6A801090057512624C7A147BB2
:102DAC00002274091208937F0402067DC082C0833E
:102DBC0090078F745CF0A3740FF0A3746EF0A3747F
:102DCC000FF09007937444F0A3740FF0A3743EF0CB
:102DDC00A3740FF0A3747AF0A3740FF0A37486F0AD
:102DEC00A3740FF0A37474F0A3740FF0A3742CF0FD
:102DFC00A3740FF0A37480F0A3740FF09007A17468
:102E0C0050F0A3740FF0A37456F0A3740FF0A374D6
:102E1C004AF0A3740FF0A3748CF0A3740FF0900716
:102E2C00B21250D760061260481215089007AF1204
:102E3C0047CF7408F0A3E4F0A3F090085BF0900780
:102E4C00B4F07C0BFDF97AB57B071214487C0B7D32
:102E5C000079007AC07B0712144802412574F712DE
:102E6C00044874F7120973EAFEEBFF1245807405EF
:102E7C00F0A3E4125BDB7403122F051261452430BE
:102E8C00FCE43FFD8C828D83E088828983122F0DB8
:102E9C00600812372674FFF0A3F0EE242EE43F1CDA
:102EAC001CFD8C828D83A3E0C0E08A828B8312434D
:102EBC000FD0E0122F0D88828983124E3824031212
:102ECC005D7B12155C7408120B657403F090056A37
:102EDC0012070E74021209277903EEFAEFFB121196
:102EEC003C7402120893E9F5087007EEFAEFFB1236
:102EFC00100AA9087409023732F0EE2402FAE43FF2
:102F0C0022125FD3126152124EFB8C828D83E0220F
:102F1C0074F2120448EAFEEBFF8C088D09890A1240
:102F2C002F06122FE6740E120B65122FF9E824FFF0
:102F3C0018E934FFF988828983E50A125CDC900574
:102F4C006F125CD790056E125CD77410120B651261
:102F5C002FF9126CEB880B8A828B83E0F50C8C8238
:102F6C008D83E0250CC3950B125FA5124EF78508D7
:102F7C0082850983A3A3A3A3A3A3A3A3E0640370E3
:102F8C00051248B78006124580E4F0A3125BDB748F
:102F9C0009F0750C0B750D00780C1208B67CB57D1C
:102FAC0007125BB912143C7402120893750CFF756E
:102FBC000DFF780C1208B6AC08AD097903EEFAEFE8
:102FCC00FB12113C7402120893E9F5087007EEFA33
:102FDC00EFFB12100AA9080237CAFB8A828B8312F4
:102FEC002FEF22E024FFF8A3E034FFF922E0F50CE8
:102FFC00A3E088828983125CF6E50CF022C082C0C3
:10300C00839007D1E0C39408400474078001E08AE0
:10301C00828B83F033333354F8F902412574F01268
:10302C000448EAFEEBFF890C8C0E8D0F750A00A28A
:10303C00AFE433F50BC2AF9007CB803F1231105089
:10304C003712311664037030EE24F9FEEF34FFFFB3
:10305C00850882850983A3A3E02405FCA3E0340042
:10306C00FDEEFAEFFB12155CEE24FF1EEF34FFFFB2
:10307C007410250AF50A150C124492127206E50C0E
:10308C006006E508450970B4E50BA2E092AFA2AF6B
:10309C00E433F50BC2AF9007CB802A2402FAE43557
:1030AC0009FB8A828B8312431B2406F582E438F5D4
:1030BC00831231258A828B83124013123125050A23
:1030CC00150C1244921244A660221231166402703E
:1030DC00F1123110E50840C3123402A2E550E38529
:1030EC000E82850F837401F0E50C70D6E50BA2E01F
:1030FC0092AF8E828F83E50AF0EE24FFFAEF34FF55
:10310C00FB022CE4123415A2E62285088285098381
:10311C00A3A312432D12567A22E08E828F83F0EEF7
:10312C0024FF1EEF34FFFF2274EC12044874F512D6
:10313C00097389108A0F8B0E851882851983E4F028
:10314C0090057BE0640170159007C8E0600F125287
:10315C001EF5089007C9123D78F509800675080020
:10316C00750900740112091F120F0EE9F89005542D
:10317C00E02924372509F509A80812470812145A22
:10318C008A0A8B0BAE0AAF0BEE4F70030232E4EEE1
:10319C002402F50AE43FF50BA809EE28F8E43FF900
:1031AC00850A82850B8312614D2404F50CE43FF5EE
:1031BC000D850C82F583E508F0900554E0F512F8C6
:1031CC00C3E498F895E0F9850A82850B83E028F52D
:1031DC0008A3E039F50975130078121208B69005AA
:1031EC0052125CD1AA08AB0912143C740212089357
:1031FC00AC18AD197401120B65E0F9E50824FFFA5F
:10320C00E50934FFFB120F148A828B83E4F0EA2465
:10321C00FFF508EB34FFF509E50EC454F0F99008FE
:10322C005CE0C4333354C0F890054EE0A2E0E433C4
:10323C0013134849440F850882850983F0E5082457
:10324C00FFF508E50934FFF509E50FC454F0451006
:10325C00850882850983F0A808850A82850B83E09E
:10326C00FA850C82850D83E02AC398125AABE8F0DC
:10327C00A3E509125BD5E4F0740A120B65E4F07552
:10328C00080BF50978081208B67CC07D07125BB9EB
:10329C0012143C7402120893851882851983E0601D
:1032AC0009EE240E125D634408F012182CE9F9E4BF
:1032BC00F50878081208B67404120927EEFAEFFB29
:1032CC0012113C7402120893E97006EEFAEFFB80BF
:1032DC000BEEFAEFFB1214607A007B00740B1208F1
:1032EC009302215D74F31204488A0A8B0BA2AFE49B
:1032FC0033F50CC2AF7508007509009007CB802C14
:10330C001235105024850A82850B83A3A3125CD13D
:10331C008E828F83A3A312604B121124E9600A12D0
:10332C003354C2E6F08E088F091235061237BF707F
:10333C00CFE50845096006123411D2E6F0E50CA27F
:10334C00E092AF7F0502067D12335822125ADCE060
:10335C002274F0120448EAFEEBFF8C0C8D0D750EF6
:10336C0000A2AFE433F50FC2AF75080075090090E9
:10337C0007CB801F850A08850B09123411D2E4F0A3
:10338C00E508123402D2E7F0E50A24FBF582E50BDE
:10339C001276DA125BC1E50A450B6043E50A12426C
:1033AC00FF350BF583E0A2E750DE850A82850B839F
:1033BC00A3A312070EAC0CAD0DEEFAEFFB12112A03
:1033CC007402120893E960C0E508450960A6E50897
:1033DC00240D12340864017006122483D2E4F0E543
:1033EC000FA2E092AFE50845096006121004750EB5
:1033FC0001A90E022CE4241012340822F582E435C3
:10340C0009F583E02212341522E50812430335092D
:10341C00F583E02274F212044874FE120973750CE1
:10342C0000750D00851882851983E4F0A3F0A2AF16
:10343C0033F50AC2AF9007CB126DF8803012350607
:10344C00127206780C1208B6EEFCEFFD7ACB7B07F5
:10345C0012148A7402120893EEFCEFFDAA18AB1931
:10346C00121478AE08AF099007D1E014F0EE4F605B
:10347C001F1235105015EE240B12707724FFF0A399
:10348C00E034FF125FC11250D760B212350280A82F
:10349C00E50AA2E092AF9007D1E06031900555E0CB
:1034AC00640F600690085BE070237AA97B07121208
:1034BC00749080A71207067AA97B0712126874040D
:1034CC00120893800874F0124AA8120FF8AA18ABCD
:1034DC001912147E8A0A8B0BAE0AAF0BEE4F6013D7
:1034EC00120F20123354A2E28E828F83A350D67413
:1034FC00E980D40237C58E0C8F0DEE24FBF582EFDC
:10350C001276DA22123358A2E72274F7120448EA30
:10351C00FEEBFF120F209007E012430F121837E951
:10352C006401900571700AE02401F8A3E034008076
:10353C00031244F5F9124C94124EF79007D1E07037
:10354C0021900555E0640F70197AA97B071212744B
:10355C009080A71207067AA97B07121268740412CE
:10356C000893A9A8C2AF9007D1E00412357EA2E758
:10357C00800DF0E9A2E7E433F8E922E508A2E09235
:10358C00AF024BB974F7120448EAFEEBFF1235C5D3
:10359C00F0120F20EEFCEFFD7ACB7B07121484A9FE
:1035AC00A8C2AF9007D1121EC6900555E0640F70EB
:1035BC000579081210D0024BB9123358C2E42274A8
:1035CC00F712044874EA120973EAFEEBFF90054EF9
:1035DC00E060408518828519837401F0120B65E454
:1035EC0012369D120B65AA82AB8312155C8E828FEC
:1035FC0083122489C0E0740A120B65D0E0125FA913
:10360C00740B120B65AA82AB8312115AAA18AB1950
:10361C001216AC741602373274F7120448EAFEEB39
:10362C00FF120F02E9F974DC69601E74DD69601920
:10363C0074E469601474F369600F74DE69600A7471
:10364C00DF69600574DB697007EEFAEFFB1210D6C8
:10365C00024BB974F712044874EB120973EAFEEBCF
:10366C00FF851882851983740612369D120B65AA84
:10367C0082AB8312155C123BEE740A120B65AA82A4
:10368C00AB8312115AAA18AB191216AC7415023767
:10369C0032F0EE2413FCE43FFD74022274F71204A2
:1036AC004874F7120973EAFEEBFFEE2430125D63E7
:1036BC006065124103AA18AB1912155C7408120B41
:1036CC00657403F090056A12070E12372612070E66
:1036DC0090057DE0F97404120927EEFAEFFB120F46
:1036EC00087404120893E9F974DC69602374DD69C9
:1036FC00601E74E469601974F369601474DE6960A7
:10370C000F74DF69600A74E869600574DB6970071F
:10371C00EEFAEFFB1210D6022F00EE242EF582E407
:10372C003FF583227403120893024BB974F212040E
:10373C00488A088B09750C00750D00750AE7A2AF55
:10374C00E433F50BC2AF9007CB800312350212376E
:10375C00BF603812351050F3EE240D125D63640116
:10376C0070E9EE2432F582E43F123964E06870DBD4
:10377C00780C1208B6EEFCEFFD7ACB7B0712148A9C
:10378C0074021208939007D1E014F0E50BA2E092BA
:10379C00AFEE4F6013EEFAEFFB120F2079F0EEFA5A
:1037AC00EFFB1210D6750A00A90AAA08AB09121071
:1037BC00D6800B126DF8EE4F2274021208937F061E
:1037CC0002067D74F412044874F7120973EAFEEBD6
:1037DC00FF8E828F83A3E064F370030238798E82AC
:1037EC008F83A3E064DF70030238798E828F83A30A
:1037FC00E064E860788E828F83A3E064DB606E12F5
:10380C000F62E9F508705EEE240E125D63605612CD
:10381C003883120FB6EA4B604C7408120B651238E1
:10382C008D12070E7508FF7509FF78081208B68E01
:10383C00828F83A3A3A3A3A3A3A3A3E0F97404126D
:10384C000927120F087404120893E9F50874F3653C
:10385C0008601274DF6508600C74E8650860067413
:10386C00DB6508700F8E828F83A3E508F0EEFAEF0C
:10387C00FB120F6E022DAEEE240FFAE43FFB79091A
:10388C0022740212751C74FFF0A312389A2212389B
:10389C009E22124E41A3A32274F41204488A088B70
:1038AC00097E008A828B83A3A3A3A3A3A3122CC992
:1038BC0040027EE88A828B83A3A3A3A3A3A3A3A322
:1038CC00A3A3E0C3941040047EE880138A828B8308
:1038DC00A3A3A3A3A3A3A3A3A3A3E0640F600A9031
:1038EC000838E0540870027EE8EA240BF582E435CF
:1038FC0009123964A3A3A3A3A3A3A3A3E0C3985061
:10390C000CEA240B123408640F60027EE890056EFA
:10391C00E0F47003A3E0F470027EEC7A237B0012D7
:10392C0015029007B212786A9007B21250D7602134
:10393C00750A23750B00780A1208B6E5082402FCF8
:10394C00E43509FD12604812143C7402120893808D
:10395C00027E1AEEF9022DB3F583E0F88A828B838E
:10396C00A3A32274F6120448EAFEEBFF8E828F8327
:10397C00A3A3A3A3A3A3A3A3E090055512669690BB
:10398C00057012669090055012669B90085CF0F9D9
:10399C00120C8C90085CE06018EE2404FAE43FFBF7
:1039AC007950120C74EE2406FAE43FFB79E1120C08
:1039BC007490085B1227F660047401800274009006
:1039CC0007B41248281208B6EE240DFCE43FFD7A29
:1039DC00B57B0712143C740212089378081208B6CF
:1039EC00EE2418FCE43FFD7AC07B07024A5374F7BF
:1039FC00120448EAFEEBFF8E828F83A3E07006125E
:103A0C006048120F688E828F83742C124AA8121091
:103A1C00E8024BB974F7120448EAFEEBFF9007B2C8
:103A2C001250D7600D1260489007B2E4F0A3F01268
:103A3C0015088E828F837408124AA81216AC024B9A
:103A4C00B974F612044890085BE060139007B4E078
:103A5C00700D123A6E120F1AEA4B600312100A0222
:103A6C004A5B900550E0FB900570E0FA900555E03C
:103A7C00F92274F61204488A088B097E00120C860F
:103A8C00E975F064A4F8A9F07AFF7B001202F8E85B
:103A9C00FA850882850983A3A3124008E0FBA3A83A
:103AAC0082A983A2E0500690054EE060027E01EBF5
:103ABC00A2E15020EEA2E0501B88828983E0FCA397
:103ACC0008A983E508242F123408C39C40047E0106
:103ADC0080027E00EBA2E25010EEA2E0500B888236
:103AEC008983E0C39A40208005EEA2E0501990082B
:103AFC005BE060139007B4E0700D123A6E120F1A6F
:103B0C00EA4B600312100A024A5B74F41204487404
:103B1C00E7120973EAFEEBFF7508018E828F83A30F
:103B2C00A3A3A3A3A3A3E0A2E2506CEE242BF582E3
:103B3C00E43F125CCF123BE6120F26E970599080DD
:103B4C007EE064017005750800804C750A0B750BDE
:103B5C0000780A1208B6123BEE741012091F1214E8
:103B6C003C740212089312182CE9FA740E120917FD
:103B7C00880A890B780A1208B6750A30750B00781A
:103B8C000A1208B6123BD812070E125F7579011291
:103B9C0011427406120893851882851983741012C9
:103BAC00369D120B65AA82AB83121550123BD812AC
:103BBC006248740B120B65124EF7740D120B65E50F
:103BCC00081249361216AC7419022DB0123BDC22C5
:103BDC00EE242BF582E43FF58322EE2413FAE43F26
:103BEC00FB22EE2408FCE43FFD22C082C083900837
:103BFC005CE0600312119C024125C082C0839008D6
:103C0C0053748FF0A37407F0A37493F0A37407F0AC
:103C1C00A374A1F0A374071264E4F09007D6743275
:103C2C00F0A3740FF09007D87438F0A3740F02410E
:103C3C001DC082C083EAFCEBFD7903024E93C08267
:103C4C00C083EAFCEBFD7905024E9374F71204482D
:103C5C0074FF120973E98518828519831249367924
:103C6C00011210EE7401023732C082C0837908024F
:103C7C006468C082C08374FE1209739007DE74F20C
:103C8C00F0A3740FF09007E074ECF0A3740FF080C5
:103C9C000D7ACB7B0712147E12492C12110C900753
:103CAC00CB1250D770EB9007CD1250D7600F7ACD56
:103CBC007B0712147E12492C12110C80E99007CB51
:103CCC00E4F0A3F09007D11220029007EC742EF0D0
:103CDC00A37410F07402800274111208930241252F
:103CEC0074F41204488908746029F582E4341DF5D3
:103CFC0083E493FE90057BE06401701F8A828B83C2
:103D0C00A3A3A3A3A3A3A3A3E0601012521EF509BF
:103D1C008A828B83123D6F2EFE8003750900EEA8FC
:103D2C000912470812145AEA4B600AEA2E1252344E
:103D3C00E509F0802B7A027B0012145AEA4B601CC6
:103D4C00A8081250C1341DF583E4938A828B83F04A
:103D5C00A3741AF0900833E0F91214667A007B0011
:103D6C00022DB3A3A3A3A3A3A3A3A3A3E0F8127848
:103D7C0046240522E9FC740629F8EAA2E0501EE864
:103D8C0075F00A84E5F0F96014740A28C399F8E90F
:103D9C00C394054004740A28F8740B28F8ECC394F7
:103DAC001340047A1480027A06EA2879002409F870
:103DBC005001097A0A7B001202F8E8F902087BC06C
:103DCC0082C083900838E05402600A1216B2E9608F
:103DDC0004790180027900024125C082C0839008D9
:103DEC0038E0540260169007D1E0700C1250D46089
:103DFC000BE0C812449E5004790180027900024104
:103E0C0025C082C08390807BE0F89007D3E0C398F4
:103E1C00500512145A80047A007B00024125C0829E
:103E2C00C08312110C790002412574F712044874F6
:103E3C00FE120973851882851983EAF0A3EB1240F0
:103E4C0053601114606E24FE607724F87003023FF7
:103E5C008D023FF5900555E0640F60181210E2E9F1
:103E6C00701285188285198312604B9007DA124301
:103E7C000F12183790057DE0C0E0851882851983F4
:103E8C00124E16D0E01270901243107414F0851874
:103E9C0082851983125CD17ACD7B07121478A8A87D
:103EAC00C2AF9007D3E00412545079201210D07492
:103EBC0002023732851882851983124311741580DA
:103ECC00CC851882851983123FFFA3A3E0700302EF
:103EDC003FF58518828519831240081274F6E0C0EC
:103EEC00E0851882851983E0FCA3E0CC2406F582DA
:103EFC00E43CF583D0E0125FC78882898312786A2C
:103F0C008518828519831243408518828519836030
:103F1C00101240187003023FF51240204046023F39
:103F2C00F51240187003023FF5124020501C12404D
:103F3C0030FA85188285198312401AF8748C125045
:103F4C00C3341DF583E4936A601A8518828519833E
:103F5C0012401864086003023FF512403064086098
:103F6C0003023FF512403014124041240AC0E08590
:103F7C00188285198312430FD0E012404104023E8F
:103F8C0099851882851983126E00F8A3E0F988824E
:103F9C008983E0541F64037040E0C4135407F8E5B0
:103FAC008228F8E43583F9E82402F582E439F583B4
:103FBC00E0641F7024A3A3A3E0C0E08518828519D8
:103FCC0083124013D0E01240536407700C851882A2
:103FDC008519831243117431F08518828519831267
:103FEC00248B64317003023E9AAA18AB1912110C7F
:103FFC00023EBBA3124004221274D322E02402120C
:10400C006824888289832212403BA322E0F8A3E033
:10401C0012404822851882851983125FBC124049D0
:10402C00C3940A2285188285198312403BE0221220
:10403C0074D0A3A32212406112404822C82406F572
:10404C0082E438F583E022124061F5838882A3A3D1
:10405C00A3A3A3E022F08518828519831244F522CC
:10406C00C082C0839007E21250D76008124312122C
:10407C0018378002790002412574F7120448EAFED1
:10408C00EBFF125BE074011246A4125BC912614D86
:10409C002435125D63C0E0EE2413F582E43FF58312
:1040AC00D0E0127508E0C0E0EE2414F582E43FF590
:1040BC0083D0E0F0EE2438125D63C0E0EE2418F5F6
:1040CC0082E43FF583D0E0F0EE242FF582E43FF557
:1040DC008312070E124103EE2431125D63F91211A3
:1040EC003C7402120893E9F5087007EEFAEFFB1224
:1040FC00100AA908024BB9EE2426FCE43FFD22C0AD
:10410C0082C0831210E2E960047920800279018078
:10411C0008F0900838E04402F0D083D08202087B8B
:10412C00C082C083EA1242FF121EC1D2E080E9C0F5
:10413C0082C083121EBB640170111241C7400C8AED
:10414C00828B83A3E0F91210D6806DEA2410121E24
:10415C00BEA2E650128A828B83A3E0F99007DC1290
:10416C00430F1218378051121EBB6401700D12419F
:10417C00C750088A828B83743080348A828B83A3E5
:10418C00E0641B8A828B83700474228022A3E0700B
:10419C000D121EBBF874481250C3341D8009121E38
:1041AC00BBF81250C1341DF583E4938A828B83F0E3
:1041BC00900833E0F9121466024125EA2410F582C6
:1041CC00E43BF583E0A2E32274F7120448E9FE1203
:1041DC0050D470030242F7EE6011741B6E7013E042
:1041EC00C81242FA640570030242C5125448E40234
:1041FC0042C974E96E7062124338700B1216B8E93A
:10420C00600512434B606279EE120BF09007D412EA
:10421C0043359007D4603B12434E9007D4700B1279
:10422C00433514F0120DD00242F7124340C2E7128C
:10423C0044DB1242FA6403700C1243181242FF1250
:10424C00404ED2E2F079ED120BF012431F121837E8
:10425C00807512544B74E9806474E16E703E1216D2
:10426C00B8E9605512434B7050900577E0C0E012EE
:10427C0043182412F582E438F583D0E0F0900566FB
:10428C00E0C0E09007D4126BA9123FFFD0E0F09091
:10429C000566E004F07901120DB8804F741C6E7045
:1042AC00189007D412604B9007E412430F12183782
:1042BC009007D4E4F0A3F08032125448EEF090074B
:1042CC00D412604B120FF81244BAE0548060109074
:1042DC00057DE0F9120CB090057CE0F9120CA4906D
:1042EC0007D4E4F0A3F079101210D0024BB9125F8E
:1042FC006CE022124303222411F582E422850A8207
:10430C00850B83E0F8A3E0F5838882229007D41212
:10431C005FBC229007D4127503FB9007D812432D73
:10432C00221244F5F583888222E0F8A3E0C8241217
:10433C0012404B22E0F8A3E0C8241012404B22900C
:10434C0007D41244C1E054042274F4120448750AD0
:10435C0000750B00A2AFE433FFC2AF1250D4600360
:10436C000244489007E012430F121837E94410F842
:10437C009007CB800985080A85090B1244921244D8
:10438C00A67003024448123411586870E8780A1277
:10439C0008B6AC08AD097ACB7B0712148A740212EA
:1043AC0008939007D4E508F0A3E5091244DB124406
:1043BC009E500302444F9007D2E014F0EFA2E0921B
:1043CC00AF9007D4E0240E126824880889098882EB
:1043DC00F58312604B9007D4124036F9120FBCE9EA
:1043EC009007CFF0A3E41276ED54806016124318B8
:1043FC00241312404BF9120CB09007D41274DBF951
:10440C00120CA41244BAA3E05401605F9007CF12BF
:10441C0050D760451244D260401244D2F8790090D3
:10442C0007CF12604B120300E8C0E01244AED0E09C
:10443C001244E0C3941340117402800FEFA2E09277
:10444C00AF80379007D10243C57400C0E09007D508
:10445C00E0C8124489D0E0800D1244AE74011244BD
:10446C00DB1244897401F07903800C9007D4124359
:10447C0040A2E1B3E433F9120DB8022DB3241AF5BE
:10448C0082E438F58322E50824FBF582E5091276EF
:10449C00DA22241112404BA2E72212720AE50845D7
:1044AC000922125FB92419F582E438F583229007AA
:1044BC00D41244C1221244F5C81244C922240EF568
:1044CC0082E438F58322125FB9241812404B221271
:1044DC0044EDC8221244EDF5838882A3A3A3A3E084
:1044EC0022F09007D41244F522E0F8A3E02274F7EE
:1044FC00120448EAFEEBFF121106125D60A2E340C3
:10450C000FEE240D125D63640170059080798003B9
:10451C0090807AE0F9EEFCEFFD7ACB7B07121490D9
:10452C00E96041EEFAEFFB9007DE12430F121837E9
:10453C001245847020A8A8C2AF9007D2E004125490
:10454C0041FAE8A2E792AF124580A3E05401702132
:10455C00121004801CEEFAEFFB9007D612430F12D8
:10456C001837800D8E828F83A374F1124AA8120F14
:10457C00F8024BB9125BD122EE240EF582E43FF522
:10458C0083E0540422C082C08312100402412574BB
:10459C00F7120448EAFEEBFF7900900838E0540269
:1045AC00700AEE2433124587600279E8900838E0EF
:1045BC005460700CEE2433125D635402600279E88F
:1045CC008E828F83A3A3A3A3E0F890807FE0C3988F
:1045DC00500279E8EE2431125D63700CEE242E1239
:1045EC005D63700479F5800BE97005120FE6E9F94B
:1045FC00E96007EEFAEFFB1210D6024BB9C082C08D
:10460C00838A828B83740DF01216AC02412574F4EC
:10461C00120448EAFEEBFF8E828F83E4F0A312466D
:10462C00A454049080797012E0F89007D2E0C398FB
:10463C00401279F11210D6022DB3E0F89007D1E0B8
:10464C00C39850EE12749BA3E054016039EE2437EA
:10465C00125D63C39405403CEE2433125D63540534
:10466C0070327AE67B07121274EE2437F582E43F3F
:10467C00F58312247478081208AE7AE67B071212BE
:10468C00687404120893EEFAEFFB900833E0F91209
:10469C00146680A379E8809CF012749FE02274F277
:1046AC00120448890A7F007E5190057BE0640170FA
:1046BC0019EA601674962A12522AFF749E2BF58200
:1046CC00E4341DF583E4932456FEEEF8E912470812
:1046DC00EFF8EA28FAE43BFB12145AEA4B6016E5B1
:1046EC000A2F8A828B83A3A3A3A3F0EA2E12524033
:1046FC00124EF780047A007B000237CA28FAE434A1
:10470C0000FB22024591C082C0839007EF7458F0E1
:10471C00A37410F0A37488F0A37410F0A3745EF06B
:10472C00A37410F0A37464F0A37410F0A37482F05B
:10473C00A37410F0A37476F0A37410F0A37470F04B
:10474C00A37410F0A3748EF0A37410F0A37494F0FF
:10475C00A37410F0A3749AF0A37410F0A374A6F0D1
:10476C00A37410F0A3746AF0A37410F0A37452F045
:10477C00A37410F0A3744CF0A37410F090080B7495
:10478C007CF0A37410F0A374A0F0A37410F0A374C5
:10479C00DEF0A37411F0A374ACF0A37410F0A37446
:1047AC00B2F0A37410F090082FE4F0900832F0905F
:1047BC00081B1247CF7402F09008241247CF7401E3
:1047CC0002412474D0F0A37410F0A32274F61204E6
:1047DC004874F11209738518828519837402F07478
:1047EC0001120B65E9F060047AFF7BFF7402120B77
:1047FC0065EAF0A3EB1248281208B67C277D0874F2
:10480C0006120B65AA82AB8312143C740212089335
:10481C00AA18AB191216AC740F024A58F075080B93
:10482C0075090078082274F712044874FD12097394
:10483C00851882851983740AF07401120B65E9F0EE
:10484C007402120B65EA1249361216AC0237307438
:10485C00F612044874F7120973EAFEEBFF1248B71C
:10486C00125BDB74021249FCAA18AB19121550EE3C
:10487C002431125D6B122FE68A828B83E8F0A3E958
:10488C001246A4125D881208B674021209277983A5
:10489C001A1AEFFB12113C7402120893E9F5087016
:1048AC0007EEFAEFFB12100A022BAF125BD1740168
:1048BC00F0A3E42274F01204481268AA120B1A78BE
:1048CC0008790C12035978081208AE7A1E7B08027C
:1048DC002CDC74F412044874C6120973900555E06C
:1048EC00640F6010851882851983742E1249361254
:1048FC0010E880277A157B08121274122DA312036C
:10490C000088088909E4F50AF50B78081208AE7AD4
:10491C00157B081212687404120893743A022DB0B5
:10492C00851882851983EAF0A3EBF0AA18AB19223B
:10493C0074F6120448EAFEEBFF8E828F83A3E0F834
:10494C0060030249E6EE2430125D6364026007E006
:10495C006403600278E8EE2426F582E43FF58312C6
:10496C002CCB400478E88075E8706FEE2426FAE4CE
:10497C003FFB79E1120C74EE2431FAE43FFB7950E1
:10498C00120C74EE2430125D6364027014EE242851
:10499C00F582E43FF583126248900564124EF7806D
:1049AC001290056474FEF0A3041249FC7A5B7B053B
:1049BC0012155C75080B75090078081208B6EE2400
:1049CC001BFCE43FFD7A277B0812143C740212088E
:1049DC0093EEFAEFFB121046E9F8E86011E88E82CC
:1049EC008F83A312668A7417124AA81210E8805F8C
:1049FC00F0EE2428FCE43FFD2274F612044874F710
:104A0C00120973900832E0703B7401F0F9120D64D6
:104A1C00AA18AB191211187508277509087808120D
:104A2C0008B675080175090078081208B690056A71
:104A3C0012070E74061209277A03790512114274B3
:104A4C0006120893022BB112143C74021208937FC5
:104A5C000202067D74F7120448EAFEEBFF7901129C
:104A6C000D6A8E828F83E064207004A374EBF09047
:104A7C000832E0A2E25003C2E2F0E0A2E1500812D8
:104A8C004CD6121040800C8E828F83742A124AA846
:104A9C001210E8024BB98E828F837429F0EEFAEF74
:104AAC00FB2274F212044874FE1209738A088B09F3
:104ABC007901120D6A7A157B081212747A1E7B0822
:104ACC00121274E5082402F8E43509F9124E228515
:104ADC001882851983124E4BE0F50A701FAA18AB89
:104AEC00197953120C74E5081262D3FAEFFB794A68
:104AFC00120C74EEFAEFFB797A120DA6750C0B758D
:104B0C000D00780C1208B6E5082408FCE43509FD04
:104B1C007A277B0812143C7402120893851882853C
:104B2C00198312604BA90A12103A900832E0A2E1E4
:104B3C00500E7A00850882850983A3E0F912104093
:104B4C00900832E4F00237C574F7120448EAFEEB21
:104B5C00FF8E828F83A374EBF0900832E0A2E150B9
:104B6C00077A0079EB121040EEFAEFFB1210768008
:104B7C003C74F7120448EAFEEBFF7901120D6A7AD5
:104B8C00157B081212747A1E7B0812127490082F6F
:104B9C00E4F0900832F07AFF7BFF8E828F83A3E0E3
:104BAC00F912103A8007EEFAEFFB1217DE7F0102C2
:104BBC00067D74F7120448EAFEEBFF12107080E6D3
:104BCC0074F7120448EAFEEBFF7901120D6A8E822B
:104BDC008F83A3A3A3A3E060047400800274EB1280
:104BEC004C1D5003C2E2F0E0A2E15008124D1F121E
:104BFC0010408014A2E050108E828F83742AF0A390
:104C0C0074EB124AA81210E8EEFAEFFB12101C809B
:104C1C009C8E828F83A3F0900832E0A2E22274F67D
:104C2C00120448EAFEEBFF900832E0D2E1F0790181
:104C3C00120D648E828F83A3E0703C12182CE9FA5B
:104C4C00EE240DF508E43FF50978081208B675084E
:104C5C000175090078081208B6124C9412070EEE72
:104C6C002402FCE43FFD79051211427406120893EC
:104C7C00E98E828F83A3F08E828F83A3E060067A05
:104C8C0000F9121040024A5B124C9822EE240BF5EC
:104C9C0082E43FF5832274F7120448EAFEEBFF79B5
:104CAC0001120D6A8E828F83E064207004A374EB72
:104CBC00F0900832E0A2E25003C2E2F0E0A2E15030
:104CCC0006124CD6121040024BB9C2E1F07A008E9B
:104CDC00828F83A3E0F92274F7120448EAFEEBFFFB
:104CEC007901120D6A7A157B081212748E828F83E9
:104CFC00A3A3A3A3E060047400800274EB124C1D08
:104D0C005003C2E2F0E0A2E15006124D1F12104017
:104D1C00024C14C2E112389AA3E0A2E4E433FA8EF6
:104D2C00828F83A3E0F92274F7120448EAFEEBFFAA
:104D3C007901120D6A8E828F83A374EB124C225070
:104D4C0003C2E2F0E0A2E15006124CD6121040026F
:104D5C004BB974F7120448EAFEEBFF7A157B081284
:104D6C001274EEFAEFFB12109A024BB274F71204A3
:104D7C0048EAFEEBFF7A157B08121274EEFAEFFB91
:104D8C0012109A024BB974F712044874EF1209739B
:104D9C00EAFEEBFF125F757A5B7B0512154AE96040
:104DAC00648518828519837409F07401120B65747B
:104DBC00EF127853124E22F87402120B65E8124E61
:104DCC004BA3A3E0C0E07404120B65D0E0124E3884
:104DDC00640870158E828F83A3A3124E16E0C0E078
:104DEC007405120B65D0E080067405120B65E41295
:104DFC005FA97406120B65AA82AB8312115AAA180A
:104E0C00AB191216AC7411023732125FBC2407F5C1
:104E1C0082E438F58322E8FAE9FB8A828B831262FA
:104E2C004C88828983E0FCA3E0F9EC22124E3C22F0
:104E3C00124E41E022F08E828F83A3A3A3A32212F1
:104E4C005FD01274CC22C082C08312119C02412507
:104E5C00C082C08390084F74EFF0A37407F0A37462
:104E6C000BF0A37408F090114B7474F0A3741BF046
:104E7C00A374A4F0A3741A1264D2024124C082C099
:104E8C0083EAFCEBFD79021210F4024125C082C0CA
:104E9C0083790602646874F612044874FE1209736E
:104EAC009008341250D760077A347B0812110C909A
:104EBC00083AE4F09008DF1250D760268007AA1851
:104ECC00AB1912110C900833E0F91214728A088B8A
:104EDC0009A808A909851882851983124EF7E84993
:104EEC0070DC024A5612624C9008B0124EFB22E85B
:104EFC00F0A3E9F02274F7120448E9FA7B00900859
:104F0C0033E0F9121496024BB974F712044874F09A
:104F1C00120973EAFCEBFDE9FE8C828D83E0F874D8
:104F2C006C1250C3341DF583E493C0E07401120B72
:104F3C0065D0E0F0640B700DEE8C828D83A3F012C3
:104F4C00117E025015E07003025015640C600302D0
:104F5C005006741A6E700B7404120B65E4F0A30205
:104F6C0050057404120B65ECF0A3EDF0EC24321236
:104F7C00501AC0E07403120B65D0E0126557120B87
:104F8C00427406120B65120B368C828D8312623FB3
:104F9C00740A120B65124EF7EC240E12501A5410B0
:104FAC006009851882851983E48013EC2412125051
:104FBC001AF8900577E0C398851882851983F0E07C
:104FCC00C0E0740C120B65D0E0F0EC241512501AF2
:104FDC00C0E0740D120B65D0E0F0EC241612501AE0
:104FEC00C0E0740E120B65D0E0F0EC241712501ACE
:104FFC00C0E0740F120B65D0E0F07402120B65EE7A
:10500C00F0740112091F1216AC7410023732F582BB
:10501C00E43DF583E022C082C08390083AE070043E
:10502C00790180027900024125C082C08390083A40
:10503C00E06403700479018002790002412574F761
:10504C0012044890083AE01250C8125CCF8A828B46
:10505C0083E0C2E7F025E0F8EC1250C33DF583A3E2
:10506C00E493FE1250C8F5831250D76005EE9008F9
:10507C003AF08A828B83E012645BEC28F582ED397E
:10508C00F583E493FCC4540F25E0F874491250C323
:10509C003408F5831250D7700512116C8014EC543F
:1050AC000F25E0FCE82CF582E439F58312430F124E
:1050BC001837024BB9745428F582E42212645B74DD
:1050CC004928F582741139229007D412624CE849B0
:1050DC002274F312044874FE120973890C125200E4
:1050EC00FA7B0012145A8A088B09EA4509603B8A3C
:1050FC00828B83E50CF0A3E4F0A80C125211F50A94
:10510C00750B00780A1208B6EEFCEFFDEA2402FAE1
:10511C00E43509FB12143C7402120893AA08AB097B
:10512C00900833E0F9121466801285188285198371
:10513C00E50CF0791AAA18AB191210D674021208E1
:10514C009302334F74F012044874FE120973890BE6
:10515C00125200F50A90057BE0640170218C828D5F
:10516C0083A3A3A3A3A3A3A3A3E0601212521EF5CF
:10517C000C8C828D83123D6F250AF50A8003750C09
:10518C0000A80CE50A12470812145A8A088B09EA7F
:10519C00450960478A828B83E50BF0A3E4F0A80AEB
:1051AC00EA28125234E50CF0A80B125211F50C75CA
:1051BC000D00780C1208B6EEFCEFFDEA241BFAE4A5
:1051CC003509FB12143C7402120893AA08AB09901F
:1051DC000833E0F912146679008014851882851959
:1051EC0083E50BF0791AAA18AB191210D6791A7438
:1051FC0002022CE1EAFEEBFF747729F582E4341D00
:10520C00F583E49322748228F582E4341DF583E45B
:10521C009322F81252232274962812522A22F582D3
:10522C00E4341DF583E49322125240E8125FD0A3BC
:10523C00A3A3A322F8E43BF98A828B83A3A322C005
:10524C0082C083E990083302412474F71204487435
:10525C00FC120973EAFEEBFFEE54207030EF548021
:10526C00600302535A025374851882851983E064D3
:10527C00157008740212091F12110C8518828519F9
:10528C0083E0641560077A367B0812110C7ACD7BAB
:10529C000712147E7402120B6512786A7402120BD8
:1052AC00651250D760B7A8A8C2AF9007D3E014120C
:1052BC005441F508E8A2E792AF7402120B65122470
:1052CC008B851882851983F07402120B6512545A5F
:1052DC00120B6512604B121220E9F8700D74021259
:1052EC000B6512604B1210E8809174DC68602674B8
:1052FC00DD68602174E468601C74F368601774DE08
:10530C0068601274DF68600D74E868600874DB68AC
:10531C0060030252747402120B6512544BE9F07460
:10532C0002120B6512604B12117E8518828519834F
:10533C00E06415600302528702527F12545D120B17
:10534C006512604B1210E87A367B0812110C90082B
:10535C0033E0F91214727402120B6512786A74023B
:10536C00120B651250D770D3EE5410600E85188254
:10537C00851983742D1249361210E8EEA2E0500EF6
:10538C0085188285198374241249361210E8EE545C
:10539C0002600E8518828519837425124936121005
:1053AC00E8EE5404600E8518828519837426124920
:1053BC00361210E8EE5408600E8518828519837435
:1053CC00281249361210E8EE544060107401120B8A
:1053DC0065127517742C1249361210E8EE54806061
:1053EC00107401120B65127517742F1249361210B6
:1053FC00E89008341250D76033A8A8C2AF90083494
:10540C0012604B7402120B6512786A900834E4F047
:10541C00A31254507402120B6512545A120B6512DB
:10542C00604B1210E87A367B0812110C7A007B0064
:10543C007404023732F0E8A2E7E433229007D41266
:10544C00432DA322125441FEE8A2E792AF2212622E
:10545C004C900836124EFB740222C082C083900816
:10546C0036126248EA687002EB697007900836E4FD
:10547C00F0A3F002412574F7120448EAFEEBFFEEAC
:10548C004F70031217EAA2AFE433F508C2AF8E8255
:10549C008F831250D76028E824FBFAE934FFFB9085
:1054AC000836125CD1E86C7002E96D700790083612
:1054BC00E4F0A3F08E828F83E4F0A3F012150802BF
:1054CC003587C082C08390085D7460F0A37411F0BE
:1054DC00A37472F0A37411F0A37478F0A37411F098
:1054EC00A37416F0A37410F0A3747EF0A37411F0DF
:1054FC00A37410F0A37410F0A3741CF0A37410F038
:10550C0090086B74BAF0A37411F0A37484F0A374B4
:10551C0011F0A3748AF0A37411F0A37496F0A37421
:10552C0011F0A374DEF0A37417F090085CE4024150
:10553C0024C082C083900564E064FE7003A3E0F491
:10554C0070097C5B7D0512155080158A828B83A3B4
:10555C00A3A3A3A3A3A3A37402F01256BA124EF7EB
:10556C00024125C082C08390056E12708740047979
:10557C000380027902024125C082C08312571C8C21
:10558C00828D8312567A687039740268701C8A8214
:10559C008B831255D3E06870298A828B83A31255B2
:1055AC00D3A3E068701C7901801A7403687013EC43
:1055BC002405FC50010DEA2405FA50010B12155676
:1055CC0080027900024125A3A3A3A3A3E0F88C8257
:1055DC008D83A3A3A3A3A32274F61204487E0074A4
:1055EC000A120B65E012566EFF8A828B83A3A3A36B
:1055FC00A3A3A3A3A3E06F706474026F704E8A829E
:10560C008B83C082C08388828983A3A3A3A3A3E0D6
:10561C00F50888828983A3A3A3A3A3A3E0FBAA080C
:10562C00D083D082E06A7003A3E06B7030888289EB
:10563C0083A3A3A3E0FA88828983A3A3A3A3E0F99D
:10564C00EA6C7002E96D70157E01801174036F7045
:10565C000CE82405FCE439FD121556E9FEEEF902BE
:10566C004A5BF8A3E0F98882898312567A22A3E078
:10567C001313543F540322C082C0838A828B83A3AA
:10568C00A3A3A3A3A3A3A3E0640270141256BAE0CD
:10569C00687003A3E06970047901800F7900800BB6
:1056AC00EAFCEBFD7A5B7B0512154A02412590055D
:1056BC006412624C8A828B8322C082C08312571C74
:1056CC006035740268703890056412708750308AA7
:1056DC00828B83A3A3A3A3A3E0FC8A828B83A3A3C3
:1056EC00A3A3A3A3E0F9ECF8758305758264E068C5
:1056FC007003A3E0697004790180127900800EEACE
:10570C002405FCE43BFD7A5B7B0512155602412512
:10571C008A828B8312567AF82274E912044874FA3E
:10572C00120973EAFEEBFF8C108D117508007509D8
:10573C00008C828D83A3A3A3A3A3A3A3A3E0F51240
:10574C007404120B65E4F0A3F0E9A2E75008750E9F
:10575C00FF750FFF800A90056AE0F50EA3E0F50FC8
:10576C00E9C2E7F513EE240E125D635420600712B4
:10577C005ACE74088004125ACEE4125AFF540460B4
:10578C0007125AD874808005125AD87410125AFF16
:10579C0054106006125AB3E4800B900577E0C0E019
:1057AC00125AB3D0E0125AFFA2E0500375082054ED
:1057BC0008600674104508F508125AEDEE240D1217
:1057CC005D63C39402E04010640B6007E014125B4D
:1057DC0005800375092274034508F50890058AE0D5
:1057EC00640170148E828F83A3A3A3A3E0C3946778
:1057FC00400674104509F509741D120B65125F8B78
:10580C002423125D63605474084508F50890057BE9
:10581C00E06051E508540870030258FB8E828F83B8
:10582C00A3A3A3A3E0F5168E828F8312624685187C
:10583C0082851983E8F0A3E9125BDBE0C394024094
:10584C002D8E828F83A3A3A3A3E004126CF3127892
:10585C003788828983EAF0A3EB804BE50854087003
:10586C00030258FB8E828F83A374DF025A9FE07071
:10587C0036EE2423125D63F81274BC900554E028B4
:10588C00F5168E828F83A3A3A3A3E0A816C398F862
:10589C0095E0F9851882851983126E098518828521
:1058AC001983E8F0A3E9F07402120917880A890B2E
:1058BC00780A1208B67406120917880A890B780A36
:1058CC001208B6780C1208B6EEFAEFFB12122C7412
:1058DC0006120893E9F96003025A7C74104509F525
:1058EC0009124584600674104508F508125AED85B6
:1058FC001314751500740E7814120A88E5154509F1
:10590C00F50974026513700E90056F125B04900517
:10591C006E125AE48013740365137012125ABD7C14
:10592C007E7D05AA0AFB12155C125ACA8004E51387
:10593C006028E5126014E50C650E7004E50D650F2A
:10594C00700874404508F5088010850A82850B8321
:10595C00E50F125B21E50E125B0B85120E750F0025
:10596C00740A780E120A88E50F4509F50974026568
:10597C00127015851082851183A3125B0485108229
:10598C00851183125AE48013740365127012125A33
:10599C00BDAC10AD11AA0AFB12155C125ACA8004D8
:1059AC00E5126010850A82850B83E50D125B21E5FB
:1059BC000C125B0BA80AA90BE824FFF50AE934FFCB
:1059CC00F50BEE240D125D63700590055A80039063
:1059DC000566E0FA04F0EA88828983125AABE5097D
:1059EC00125B21E508F0EE2404F8E43FF9E8FAE94B
:1059FC00FB12785CAC0A88828983E0F50C8A828B76
:105A0C0083E0250CC39C125FC1ECF0A3E50BF0E521
:105A1C0008540860788E828F83A3A3A3A3E0F50AB1
:105A2C001272007404120B651250D770031217EA2D
:105A3C00E516F50B780B1208BA7401120B651207F8
:105A4C000E780A1208BA7406120B6512430F12076D
:105A5C0006AC08AD09EE2423125D63F9740C120B2D
:105A6C006512604B1212327408120893E9F960083F
:105A7C008E828F83A3F0801D9080EF7808120B1A12
:105A8C007402120B6512430F7808120A3C8E828F37
:105A9C0083A3E4F0F974061208937F0F02067DF0DD
:105AAC00850A82850B8322EE2412F582E43FF5836E
:105ABC0022E50A24F9F50AE50B34FFF50B22125BFB
:105ACC001422EE2410F582E43FF58322125ADC22D4
:105ADC00EE1243033FF58322E0850A82850B83F0A7
:105AEC00228E828F83A3A3E024FFF50AA3E034FF68
:105AFC00F50B22125BEAE022E0850A82850B831209
:105B0C005B0F22F0125B1422E50A24FFF50AE50B69
:105B1C0034FFF50B22125B0F850A82F5832274EE9B
:105B2C00120448890C8A0D8C088D09750E1A74168E
